:100000000C94F30C0C943A0D0C943A0D0C943A0D9C
:100010000C943A0D0C943A0D0C943A0D0C943A0D44
:100020000C943A0D0C943A0D0C94D0290C94A22AFD
:100030000C943F250C943A0D0C943A0D0C943A0D07
:100040000C943A0D0C943A0D0C943A0D0C943A0D14
:100050000C943A0D0C94B3250C943A0D0C943A0D73
:100060000C943A0D0C943A0D0C943A0D0C943A0DF4
:100070000C943A0D0C943A0D0C943A0D0C943A0DE4
:100080000C943A0D0C943A0D0C943A0D0C943A0DD4
:100090000C943A0D0C943A0D0C943A0D0C943A0DC4
:1000A0000C943A0D0C943A0D0C943A0D5110FC102E
:1000B000FC10FC106510FC10FC10FC108310FC10F0
:1000C000FC10A110FC1079108D109710FC10AB10D3
:1000D0005B106F10F41EF41E061F061FFD1E061F88
:1000E000061F061FF41EF41E021F061F061F021F16
:1000F0000F2B362B2E2C362B2E2C822BA52B2E2C79
:10010000FC2B0B2C496E76616C696420537065631F
:1001100069616C20696E204B65796D61700080812A
:1001200082838485868788898A8B8C8D8E8F909137
:10013000929394A0A1A2A3A4A5A6A7A8A9AAABAC98
:10014000ADAEAFB0B1B2B3B4C0C1C2C3C4C5C6C70F
:10015000C8C9CACBCCCDCECFD0D1D2D3D400617355
:1001600065746E696F70200A00040016000800179D
:10017000000F00150011000C0012001300E002F146
:1001800011D002ED110702E9110E02E4110D02DF98
:10019000119202DB11A402D7110B02D1115402CC2F
:1001A00011A102C5111A02C1111902BC114A02B6ED
:1001B00011B002B111C402AB118C02A6117002A2DF
:1001C0001143029D114B029811D4029111E402894E
:1001D000111B028411C60279111E027311B4026E42
:1001E000112D02681159026111C3025B11550253AE
:1001F0001165024D11D1024811740242110F023CE7
:1002000011690236112E022F1199022A11E80223D8
:10021000114C021E114C221A111C0216111C221123
:100220001164020D1164220811A2020311A222FD21
:10023000106802F7106822F2109402EB109422E783
:10024000106102E2106122DE105802D9105822D447
:1002500010C802CF10C822CA102502C4102522C01F
:10026000101502BB101522B6102A02B1102A22ACBA
:10027000109102A8109122A31013029E101322992C
:1002800010490294104922901083028B108322851A
:100290001086027F1086227B10260276102622709E
:1002A0001046026C10462267102902621029225E55
:1002B00010230259102322541038024F1038224ABA
:1002C000101602441016223E103202381032223329
:1002D0001089022E10892229105202231052221F47
:1002E00010A8021A10A82215103402111034220D81
:1002F000102C0207102C2202106202FA0F6222F464
:100300000F3102F00F3122EB0FB902E50F2F02DEA1
:100310000FAB02D80FC702CF0FCB02C90F5B02C3CE
:100320000FF802BC0F6602B60F6622B00F2702AAB2
:100330000F2722A40FE1029C0FE122970F56029192
:100340000F56228C0F3302860F3322810FD8027C86
:100350000FD822770FB802720FB8226D0F470267CD
:100360000F4722610F9C02570F9C22530F5A024ED7
:100370000F5A22480F6A02410F6A223B0FA602342D
:100380000FA6222E0F3902280F3922230F63021DD8
:100390000F6322180F8D02100F8D220A0FAC02047A
:1003A0000FAC22FE0E5302F90E5322F40EE202EEBF
:1003B0000EE222E80E7202E20E7222DC0E1702D763
:1003C0000E1722D20E9602CA0E9622C50E6C02BFDE
:1003D0000E6C22B90EAA02B30EAA22AD0E3C02A8E0
:1003E0000E3C22A30E93029E0E9322980EB202920E
:1003F0000EB2228C0E4E02860E4E227F0E1D027A07
:100400000E1D22740ECA026E0ECA22680E3A0262D5
:100410000E3A225C0ECC02540ECC224E0E2B024819
:100420000E2B22410ED2023C0ED222360EC90231D0
:100430000EC922290E4D02240E4D221D0EB10218A6
:100440000EB122120E5C020C0E5C22060E7102FE30
:100450000D7122F80D3502F10D3522EB0D8B02E600
:100460000D8B22E00D9502DB0D9522D50D8E02CF6E
:100470000D8E22C80D8702C20D8722BA0D7802B1F7
:100480000D7822AB0D3602A60D3622A00D7B029709
:100490000D7D028E0D6B02880D6B22820D37027C62
:1004A0000D3722770D9B02710D9B226A0DF10262BE
:1004B0000DF1225B0D9E02540D9E224F0DDA024774
:1004C0000DDA22410DD3023A0DD322330DF2022D63
:1004D0000DF222240DBA021D0DBA22160DEC0210E7
:1004E0000DEC22090D7602010D7622FA0C9702F42A
:1004F0000C9722EE0C3B02E80C3B22E20C1F02DCC4
:100500000C1F22D50C5E02CD0C5E22C70C3D02BF33
:100510000C3D22B90CE502B20CE522AC0CEA02A5B6
:100520000CEA229B0CB602940CB6228E0CD90287E0
:100530000CD922800C7A027A0C7A22710C79026A28
:100540000C7922620CE6025B0CE622510CA7024AEF
:100550000CA722440C6E023E0C6E22370CF4022DC6
:100560000CF422270CB5021E0CB522170C7C020ECF
:100570000C7C22070CDC02010CDC22FB0B5D02F37D
:100580000B5D22EC0BB302E30BB322DD0BCD02D4E7
:100590000BCD22CE0B6D02C80B6D22C20B7302BDB8
:1005A0000B7322B80B8F02B10B8F22A80B6702A22C
:1005B0000B67229C0BD602960BD6228E0BE3028889
:1005C0000BE322800BAE02770BAE22710B9D026B08
:1005D0000B9D22630B57025D0B5722560B4F024FA8
:1005E0000B4F22460BCE023D0BCE22340B75022D53
:1005F0000B7522280BBC02220BBC22190B3E0212E7
:100600000B3E22080BAD02000BAD22F70AE902F106
:100610000AE922EA0AB702E30AB722DD0A5F02D436
:100620000A5F22C80AF502BF0AF522B90AF602B12A
:100630000AF622A90AF302A20AF3229B0AE702940D
:100640000AE7228C0AFA02840AFA227E0AFC027263
:100650000AFC226A0AED02630AED225C0A9F025636
:100660000A9F224D0AF902470AF9223A0A3F023349
:100670000A3F222C0ADB02240ADB221C0ACF0211C9
:100680000ACF220A0A7E02030A7E22FB09BE02F377
:1006900009BE22EC096F02E6096F22DF09AF02D81A
:1006A00009AF22D109DD02CB09DD22C209DE02BB7E
:1006B00009DE22B309D702AC09D722A409EB029BB9
:1006C00009EB229009BB028709BB228009BD027891
:1006D00009BD226F09EE026609EE225E0977025714
:1006E0000977224E09EF024509EF223E097F0235C4
:1006F000097F222C09FD022409FD221909FB0211A0
:1007000009FB220909FE02FE08FE22F408BF02ECE2
:1007100008BF22E308DF02DA08DF22D308F702C8A5
:1007200008F722C008FF02B408FF22AB0801089BAB
:100730000802088B0804087B0808086B0810085B8F
:100740000820084B0840083B0880082B08000A1BBB
:100750000800090B080302F5070602DF070C02C9AF
:10076000071802B30730029D0760028707C00271B5
:1007700007556E646566696E656420517569636BC3
:1007800020466972652000556E646566696E656411
:1007900020517569636B20466972652000556E644F
:1007A0006566696E656420517569636B2046697280
:1007B000652000556E646566696E656420517569D3
:1007C000636B20466972652000556E646566696ECC
:1007D000656420517569636B204669726520005518
:1007E0006E646566696E656420517569636B204649
:1007F0006972652000556E646566696E6564205196
:100800007569636B20466972652000756E64656664
:10081000696E656420557365722000756E64656647
:10082000696E656420557365722000756E64656637
:10083000696E656420557365722000756E64656627
:10084000696E656420557365722000756E64656617
:10085000696E656420557365722000756E64656607
:10086000696E656420557365722000756E646566F7
:10087000696E656420557365722000756E646566E7
:10088000696E656420557365722000756E646566D7
:10089000696E656420557365722000756E646566C7
:1008A000696E65642055736572200068696D7365B3
:1008B0006C662000657370656369616C6C792000FB
:1008C000706C6179656420006578706C61696E6533
:1008D0006420006D616A6F722000636F6D70616EDD
:1008E00079200070657268617073200074686174AB
:1008F00027732000706F737369626C652000736FDB
:100900006D657468696E6720006D616B696E672044
:1009100000616C6D6F73742000696D706F7274612B
:100920006E74200066616D696C792000686F776570
:100930007665722000616C72656164792000706C6C
:1009400061636520007370656369616C2000757375
:1009500075616C6C792000776F756C642000706F26
:100960006C69636520007265706C6965642000685D
:100970006176656E2774200072656D61696E200076
:100980006D6174636820006361707461696E20003A
:10099000706F6C69746963616C2000636170697465
:1009A000616C20007061757365642000776F6D6500
:1009B0006E2000706572736F6E2000646F6E277416
:1009C000200070726F6772616D200066726F6D201B
:1009D0000070617269732000776527766520006C6E
:1009E000656173742000776F726B200069736E27E6
:1009F0007420006469646E277420006F74686572E7
:100A0000732000636F756C642000706F77657220CF
:100A100000636F72706F7261746520006D6F736335
:100A20006F77200066616D6F757320006865617275
:100A300064200077686572652000696D6167696E82
:100A40006174696F6E200066696C6D200070617260
:100A5000656E7473200063616D652000706C617455
:100A6000652000617072696C20006D6F746865723A
:100A70002000676F7665726E6D656E7420006D750F
:100A800063682000636F6D696E672000706C65613C
:100A9000736520007765276C6C2000706C616E7345
:100AA0002000736D616C6C200070756C6C65642047
:100AB0000073696D706C792000706C61792000653D
:100AC00078616D706C652000756E64657273746119
:100AD0006E6420006265636175736520006D616BF3
:100AE0006520007368616D652000706C61746F2013
:100AF00000666C6970200070726976617465200010
:100B00007265706169722000696E746572657374D4
:100B100020007468657365200070726576656E7478
:100B200020007468656D20006C61792000616C6F35
:100B30006E65200070726F63657373200073746F4D
:100B40007070656420006F6666657265642000776A
:100B50006F72647320006F776E65642000646F7736
:100B60006E20006D6174746572200061726D792071
:100B700000697427732000646573706974652000D0
:100B800070696C6C6F772000736C617020006F70FF
:100B9000656E65642000736F6D6520006C6561642F
:100BA000200077656C6C2000706572666563742048
:100BB0000077652772652000686F77200077686F7F
:100BC00020006C696665200066656C7420007061A9
:100BD00067652000726170706F727420006D6173C0
:100BE0006B20007370616E69736820006F667465B6
:100BF0006E20006265666F726520006D6F72652001
:100C000000726F6F6D20006F7468657220007468E9
:100C1000726F756768200068617070792000657870
:100C2000616D696E652000686F6D652000656D708F
:100C30006C6F79656520006C697665732000746F50
:100C40006C642000706169642000737065616B20C2
:100C50000070656F706C652773200073706F6B6533
:100C60002000686176696E672000616761696E20A7
:100C7000006C6F6F6B696E6720007375636820008E
:100C80006F62616D612000616D6F6E6720006D693C
:100C90006E64200073686527642000706F6C69744F
:100CA000696373200073706C6974200070616C65F7
:100CB00020006170706C65200068617665200066B8
:100CC000617468657220006F6E63652000636F75E4
:100CD00072736520007965617273200077656E74A8
:100CE00020006A61636B20007769746820006D6181
:100CF0006465200073616D652000686F7573652001
:100D00000073686F756C64200070726F76652000E8
:100D100067726970200070697463682000736D6980
:100D2000746820006D697373696F6E200073686F5B
:100D30007020006D61736F6E2000776F6D616E20A3
:100D4000006D6F73742000636F6D6D6F6E20006DAA
:100D5000727320007370656E74200068756D616E2B
:100D60002000616E696D616C200070616E7473208B
:100D70000063616D70200068616420007768656EB3
:100D800020006C617374200063616C6C2000616EE4
:100D90006F746865722000776974686F75742000DD
:100DA0006B696E6420007368652000696E746F2043
:100DB0000074686F75676874200070617373656490
:100DC00020007765276420007072657373200073BC
:100DD00074657020006D616E792000616E272000BF
:100DE0007061737420006361702000796561682010
:100DF00000616E6E6965200068616C6C2000616E38
:100E00006E75616C2000796F757220007475726E5A
:100E100020007061696E200061696D20006F666658
:100E200065722000666F722000706F7461746F20AD
:100E30000067617020006A756D70200073756D2009
:100E40000069736161632000776169742000706FCD
:100E50006F7220007265706F727420006E69636B30
:100E60002000746869732000706F737420007374BD
:100E70006F7020006E657874200072616E20006FC4
:100E8000726465722000676F6F6420006D69737310
:100E900020007368697020006D61737320007361B6
:100EA0006D200068657220007468652000706963B9
:100EB0006B20007469707320006F76657220007477
:100EC000656C6C20006A656D20007365656D6564F6
:100ED00020006E65772000616E6420006A6F686E86
:100EE0002000736F756C20006C6970732000736C48
:100EF000697020006E6F772000776F6E2000692781
:100F00007665200074726970200070617274200030
:100F100061707065617220006C6F77200077696C7A
:100F20006C200068617420007468617420006B6537
:100F300065702000737069657320006C6F73742096
:100F4000007374696C6C20006A757374200063759B
:100F50007420006D72200072656D656D626572208F
:100F6000006F7765642000776F6F64200069626DA1
:100F7000200074696D20007075742000746F6D20FE
:100F800000686173200077697368200075736520BD
:100F900000646F6E6520006C6170200061706F6C82
:100FA0006C6F2000696465612000736169642000D2
:100FB0006C696B652000656C736520006D696768FE
:100FC000742000746F776E20006761707320006575
:100FD00078706F73656420007061636B20006669D0
:100FE000727374200070617468200068616E200064
:100FF000616820006C6F6F6B2000736B696C6C73A1
:10100000200069766520006576657220006865209D
:101010000065682000706974200074697020007594
:10102000732000736F6F6E20007061742000746114
:101030007020006869732000736B696E20006E6514
:10104000656420006579657320006869742000621A
:10105000697420006B6161200061736B2000696618
:10106000200066697420006F64642000646F2000B3
:101070006B69647320006469642000277320006436
:1010800065657020007061737320007361702000CB
:101090006F66200061676F20006A617720007361CE
:1010A0006E20006D616E2000616D200069747320F8
:1010B0000073697420006E61792000616E792000F0
:1010C00069782000786969692000706F7420007465
:1010D0006F7020006E6F74200062757420006C6168
:1010E0002000616C6C20006D792000656E656D7963
:1010F00020006C6F74200074696C6C200070697340
:1011000073200073697020006C69652000656C2095
:10111000007965742000626520006F7220006765A9
:1011200074200070696C6F7420006D62612000741F
:1011300072696564200066616C6C20007765726579
:1011400020006F6E6C7920006D616F2000616C650E
:10115000782000616E796F6E652000736F6170207A
:101160000061626F757420006669766520006927EA
:101170006D2000626573742000706F737365737304
:101180006564200063616E200070656F706C65207F
:10119000006D6F6E6579200074776F2000776F7730
:1011A00020006F6820007065722000706F706520ED
:1011B0000068696D2000636F7374200066616E20A3
:1011C000006263200070697A7A612000796F75206F
:1011D00000666163742000276920006D7320006140
:1011E000726520007365742000776520007570209B
:1011F00000706F6F6C200041005D1284015A1282F2
:10120000005712A0005412A001511281004E128109
:10121000044B12A0044812A005451284054212098D
:10122000043F1282043C1241043912060436129023
:10123000043312E13000E12000E12600E12700E163
:101240002F00E11F00E13400E11E00E13800E13829
:1012500000E13400E11E00E12700E11F00E126006B
:1012600000000000000000002A2B28000000000001
:101270000000000000000000000000290000000045
:101280002C1E3420212224342627252E362D3738B3
:10129000271E1F202122232425263333362E3738BC
:1012A0001F0405060708090A0B0C0D0E0F1011127A
:1012B000131415161718191A1B1C1D2F3130232D46
:1012C000350405060708090A0B0C0D0E0F10111244
:1012D000131415161718191A1B1C1D2F3130354CF5
:1012E00000000000000000000000000000000000FE
:1012F00000000000000000000000000000000000EE
:1013000000000000000000000000000000000000DD
:1013100000000000000000000000000000000000CD
:1013200000000000000000000000000000000000BD
:1013300000000000000000000000000000000000AD
:10134000000000000000000000000000000000009D
:10135000000000000000000000000000000000008D
:10136000000000000000000000000000000000007D
:10137000000000000000000000000000000000006D
:101380000001010101010100010101010000000053
:101390000000000000000000000001000100010149
:1013A000010101010101010101010101010101012D
:1013B0000101010101010101010101000000010120
:1013C000000000000000000000000000000000001D
:1013D0000000000000000000000000010101010009
:1013E00000AE00AF00DA02818FD9F1DB40A4A62E57
:1013F000AF00A0C000A1C800AED580A81FD3004098
:101400008D1420000000000000003E5B4F5B3E009A
:101410003E6B4F6B3E001C3E7C3E1C00183C7E3CED
:1014200018001C577D571C001C5E7F5E1C000018B6
:101430003C180000FFE7C3E7FF0000182418000075
:10144000FFE7DBE7FF0030483A060E00262979293E
:101450002600407F05050700407F05253F005A3CD8
:10146000E73C5A007F3E1C1C0800081C1C3E7F0005
:1014700014227F2214005F5F005F5F0006097F0176
:101480007F00006689956A0060606060600094A2D9
:10149000FFA2940008047E04080010207E201000A3
:1014A00008082A1C0800081C2A0808001E10101032
:1014B00010000C1E0C1E0C0030383E383000060E9A
:1014C0003E0E060000000000000000005F0000006B
:1014D000000700070000147F147F1400242A7F2ACD
:1014E0001200231308646200364956205000000899
:1014F00007030000001C224100000041221C0000E4
:101500002A1C7F1C2A0008083E0808000080703052
:1015100000000808080808000000606000002010B3
:10152000080402003E5149453E0000427F40000051
:101530007249494946002141494D33001814127F30
:1015400010002745454539003C4A494931004121B1
:1015500011090700364949493600464949291E0004
:1015600000001400000000403400000000081422B5
:101570004100141414141400004122140800020144
:10158000590906003E415D594E007C1211127C0043
:101590007F49494936003E41414122007F41414156
:1015A0003E007F49494941007F09090901003E4148
:1015B000415173007F0808087F0000417F4100000F
:1015C0002040413F01007F08142241007F404040FD
:1015D00040007F021C027F007F0408107F003E4114
:1015E00041413E007F09090906003E4151215E004C
:1015F0007F091929460026494949320003017F0124
:1016000003003F4040403F001F2040201F003F405C
:1016100038403F0063140814630003047804030097
:101620006159494D4300007F4141410002040810C7
:101630002000004141417F000402010204004040BB
:101640004040400000030708000020545478400048
:101650007F2844443800384444442800384444280F
:101660007F0038545454180000087E09020018A462
:10167000A49C78007F080404780000447D400000AA
:101680002040403D00007F102844000000417F4082
:1016900000007C04780478007C0804047800384456
:1016A00044443800FC182424180018242418FC0092
:1016B0007C080404080048545454240004043F44A3
:1016C00024003C4040207C001C2040201C003C406A
:1016D00030403C004428102844004C9090907C00FE
:1016E0004464544C44000008364100000000770078
:1016F00000000041360800000201020402003C26FE
:1017000023263C00000000000000404040F0F8F8B4
:10171000FF38FFF8F83FF8F8FF38FFF8F8F04040DE
:101720004000000000000080C0C0C0800000C0C0B9
:101730008000000080C0C000C0C0000080C0C000A9
:1017400000000000C0C0C0C0C000C0C00000000059
:101750000000000000000000000000000000000089
:101760000000000000000000000000000000000079
:101770000000000000000000000000000000000069
:10178000000000C0F0F8FC3E1E06010000007F4192
:1017900041417F007F4141417F000080C0E07E5B8E
:1017A0004F5BFEC00000C000DCD7DEDEDED7DC0011
:1017B000C000000000000000000000000000000069
:1017C00000000000000000000000494949FFFFFF41
:1017D000FFE0DFBFBF00BFBFDFE0FFFFFFFF494902
:1017E0004900000000001F3F6060E0BF1F007F7FD6
:1017F000071E381E077F7F007F7F0E1F3B71600032
:10180000000000007F7F0C0C0C007E7E007F7E03BA
:1018100003007F7E03037E7E03037F7E000F3E7006
:101820003C063C703E0F00327B49493F7E007F7E84
:101830000303001E3F69696F2600000000000000DE
:10184000000000030F1F3F3C7870600000007F41E4
:1018500041417F007F4141417F00307B7F783020D4
:101860002030787F3B0003000F7F0F0F0F7F0F00AA
:101870000300000000000000000000000000000065
:1018800000000000000000000000010101070F0F30
:101890007F0F7F0F0F7E0F0F7F0F7F0F0F0701014D
:1018A0000100000000000000000000010100000035
:1018B0000000000000000000000000000000000028
:1018C0000000000000000000000000000000000018
:1018D0000000000000000000000000000000000008
:1018E00000000000000000000000000000000000F8
:1018F00000000000000000000000000000000000E8
:1019000000000000000000000000000000000000D7
:1019100000000000000000000000000000000000C7
:1019200000000000000000000000000000000000B7
:1019300000000000000000000000000000000000A7
:10194000000000000403300000000A034E0069009C
:101950006F0070000000160344006100760069000B
:101960006400200042006100720072000000040365
:10197000090409022200010100A0FA090400000183
:101980000301010009211101000122400007058126
:101990000308000A12011001000000080ECB3011EC
:1019A00000010102030105010906A101050719E073
:1019B00029E7150025019508750181029501750833
:1019C00081010507190029FF150026FF00950675FE
:1019D00008810005081901290595057501910295F1
:1019E0000175039101C011241FBECFEFDAE0DEBF05
:1019F000CDBF04B603FE27C08091F4059091F50594
:101A0000A091F605B091F7058730904BA740B04BF9
:101A1000D1F41092F4051092F5051092F60510928B
:101A2000F70514BE84B7877F84BF0FB6F894A895D6
:101A300080916000886180936000109260000FBE0A
:101A4000E0E0F8E3099512E0A0E0B1E0E4ECF9E5AC
:101A500002C005900D92A638B107D9F725E0A6E897
:101A6000B2E001C01D92A43FB207E1F70E94122725
:101A70000C94E02C0C9400009093900280938F02C1
:101A8000809194029091950290938C0280938B02A6
:101A9000EDE2F3E0A4E7B3E0819191918D939D9302
:101AA00083E0ED36F807C1F7089580918F02909199
:101AB0009002909397028093960280918B0290916E
:101AC0008C029093950280939402E4E7F3E0ADE2F8
:101AD000B3E0819191918D939D9383E0E43BF8076E
:101AE000C1F7089590910001923069F490918A02B3
:101AF000943158F4E92FF0E0E354FC4F80839F5F6A
:101B000090938A0208950C94BF1C0895809100015F
:101B1000813011F480939102089520918D023091CB
:101B20008E028227932790938E0280938D020895D0
:101B30008F929F92AF92BF92DF92EF92FF920F939C
:101B40001F93CF93DF93CDB7DEB728970FB6F894E6
:101B5000DEBF0FBECDBF8C01611103C06091880252
:101B600002C061E070E0862F8170D82E29E531E057
:101B7000409105015091060180E090E0841795079F
:101B8000C9F02D5F3F4FF9013397E080F180E016F7
:101B9000F10671F4D110F5C0FC01EE0FFF1F8E0F9E
:101BA0009F1FFC01E75AFE4F82810E94720DEAC01E
:101BB0000196E4CF5DE7A52E51E0B52EE12CF12C86
:101BC0008091070190910801E816F90620F544E09C
:101BD00050E0B501CE0101960E94882C94E0A90E38
:101BE000B11C89819A810817190789F4D110C9C0DD
:101BF0000E941023827141F00E9410238D7E0E946A
:101C0000202382E00E944E238B819C8192C0EFEFC3
:101C1000EE1AFE0AD5CF47EFA42E41E1B42EE12CF7
:101C2000F12C4E01F5E08F0E911C809103019091F3
:101C30000401E816F90688F544E050E0B501C40156
:101C40000E94882C84E0A80EB11C8D819E8108170B
:101C50001907F9F4D11095C06F81788544E050E000
:101C6000CE0101960E94882C34E0A32EB12CCE0127
:101C700001967C01F70181917F01882329F00E9460
:101C8000720D8E149F04B1F791E0A91AB10879F78B
:101C900078C09FEFE91AF90AC8CF29E531E04091F1
:101CA00098025091990280E090E084179507C9F05E
:101CB0002C5F3F4FF9013497608171810617170738
:101CC00071F4D1105EC0880F991F880F991FFC0115
:101CD000E75AFE4F0280F381E02D099552C001962C
:101CE000E4CF2DE131E0409101015091020180E00B
:101CF00090E001C001968417950731F12B5F3F4FAB
:101D0000F9013597608171810617170799F7D1108E
:101D100038C025E0289FF001299FF00D1124E35ED3
:101D2000FE4F8281813069F038F0843050F184E0D8
:101D300091E00E94E61125C0838194810E948D0D5F
:101D400020C00E94860D1DC07801E894F0F8E114CF
:101D5000F10419F4E12CF12C15C00E151F05D1F377
:101D600061E0C7010E94980DE816F90699F76D2DFC
:101D7000C801882791700E94980D6D2DC7010E949F
:101D8000980D7801C70128960FB6F894DEBF0FBEF4
:101D9000CDBFDF91CF911F910F91FF90EF90DF901A
:101DA000BF90AF909F908F9008950C94AE2381E0E8
:101DB00090E008952F923F924F925F926F927F92A0
:101DC0008F929F92AF92BF92CF92DF92EF92FF924B
:101DD0000F931F93CF93DF93CDB7DEB7E2970FB684
:101DE000F894DEBF0FBECDBF00919602109197020E
:101DF00020918D0230918E022115310581F461E030
:101E000080919602909197020E94980D20919602DF
:101E10003091970282179307E1F460E030C0C80167
:101E2000822B932B90939702809396026091940259
:101E300070919502EDE2F3E080E090E06817790799
:101E4000F4F240815181422B532B419351930196DF
:101E5000F5CFC9010E943B117C01892BC9F180910A
:101E6000960290919702E816F90691F161E0C70198
:101E70000E94980DE816F90659F560E0C7010E9426
:101E8000980D80919102882329F00E94550D10929F
:101E90009102AACF8091960290919702E2960FB696
:101EA000F894DEBF0FBECDBFDF91CF911F910F9190
:101EB000FF90EF90DF90CF90BF90AF909F908F906A
:101EC0007F906F905F904F903F902F900C943C0DBF
:101ED000FE0131963F012F01C12CD12CE12CF12CB8
:101EE000C016D106C1F18DE293E09AAB89AB812C8B
:101EF000912CA12CB12C1601209430948091940245
:101F00009091950288159905C4F0E9A9FAA98191E3
:101F10009191FAABE9AB8221932190939702809340
:101F20009602009731F061E00E94980D009709F049
:101F30005C01FFEF8F1A9F0AE1CFCA28DB28F2016C
:101F4000A192B1922F01FFEFEF1AFF0A88E1E81684
:101F5000F10431F61FC0C12CD12CEC14FD0479F032
:101F6000F301819191913F019093970280939602A2
:101F700060E00E94980DFFEFCF1ADF0AEECF80914C
:101F80009102811103C0C8010E943C0D1093970279
:101F900000939602E2960FB6F894DEBF0FBECDBF57
:101FA000DF91CF911F910F91FF90EF90DF90CF9035
:101FB000BF90AF909F908F907F906F905F904F9069
:101FC0003F902F900895CF93DF9380919602909148
:101FD0009702CC9709F580910001823041F0109270
:101FE0008A028093D60382E08093000115C080911D
:101FF000D60380930001CDEBD3E080918A0290E07C
:102000009E012D5B33402817390724F489910E94E3
:10201000BF1CF3CF0E94E21E0E94DA0E8091920252
:102020009091930290939702809396021092890266
:1020300010929502109294020E94E21E1092880261
:10204000EDE2F3E08FEF9FEF8193919323E0ED3684
:10205000F207D1F7DF91CF910895EF92FF920F939E
:102060001F93CF938C017B01AB01BC018091960241
:10207000909197020E94D70E892B09F4BDC00E944F
:1020800071259093870280938602F701C281F8013F
:102090003497E431F10508F0AFC0EA5AFF4F0C94D1
:1020A000822C8091920290919302CC2311F0816056
:1020B0005BC08E7F59C08091920290919302CC2395
:1020C00011F0826051C08D7F4FC08091920290913B
:1020D0009302CC2311F0846047C08B7F45C0809170
:1020E000920290919302CC2311F088603DC0877FCB
:1020F0003BC08091920290919302CC2311F08061B9
:1021000033C08F7E31C08091920290919302CC2394
:1021100011F0806229C08F7D27C08091920290913A
:102120009302CC2311F080641FC08F7B1DC080916F
:10213000920290919302CC2311F0806815C08F77A2
:1021400013C08091920290919302CC2311F0916080
:102150000BC09E7F09C08091920290919302CC2384
:1021600011F0926001C09D7F909393028093920240
:10217000809189022091920230919302882349F044
:10218000C11107C0C9019E7F892B19F40E94E30F7A
:1021900035C02115310511F4CC23C1F3809196028D
:1021A00090919702822B932B9093970280939602A3
:1021B000A701B8010E942311909397028093960281
:1021C000AC015E7F21E0452B09F420E020938902D9
:1021D000CC23A1F02091940230919502F901EE0FE9
:1021E000FF1FE35DFC4F918380832F5F3F4F309350
:1021F00095022093940202C081E001C080E0CF915B
:102200001F910F91FF90EF900895CF93C09100011F
:10221000C130B9F480918902882399F080918802B5
:1022200081110FC080918602909187020E948925BA
:102230008F3E924030F00E94DA0E0E946123C093DC
:102240008802CF910895CF93DF93EC01FA01828148
:10225000811102C0CE010CC0CE010E94D50E81308A
:10226000C9F7CE01807F9927892BA1F3CE01906217
:10227000DF91CF9108959C012227307295FF03C012
:102280009C0140E23427C9010895CF93C82F0E94D2
:10229000E61B811102C08C2F01C080E0CF91089510
:1022A0000E94E61B60E0882319F08EE591E002C0F1
:1022B0008EE191E00C944F1781E00895CF93DF9366
:1022C00000D000D01F92CDB7DEB749835A838981F1
:1022D0009A810E94EC2269817A810F900F900F9071
:1022E0000F900F90DF91CF910C948012FC014081F0
:1022F00051816281738184810C945E111F93CF930D
:10230000DF9390E0FC01E05AFD4E1491FC01E05A8D
:10231000FC4ED491FC01E052FD4EC491DD2319F036
:1023200081EE0E94BF1CCC2319F086EE0E94BF1CD8
:10233000812F0E94AE1DCC2319F086EE0E94821DD3
:10234000DD2331F081EEDF91CF911F910C94821D3E
:10235000DF91CF911F9108950F931F93CF93DF9338
:10236000EC01062FFE018491882359F19E012F5F15
:102370003F4F813041F4E901F9011491812F0E940E
:10238000BF1C812F0DC0823031F4E901F901849125
:102390000E94BF1C0AC0833031F4E901F901849125
:1023A0000E94821D02C00E947E112196802F8823E8
:1023B000C9F2EFE9FFE03197F1F700C0000081506A
:1023C000F6CFDF91CF911F910F91089560E00C94AB
:1023D000AC110E940824811102C00E94A8240C9410
:1023E00035150C94311508950C94F31181E008957E
:1023F0000C94F611CF93C82F0E94F4118C2F0E94D9
:10240000F811CF91089508950E94E21E0E940312D0
:102410002FEF84E39CE0215080409040E1F700C022
:10242000000087E797E790930108809300080C94D9
:10243000D9250F931F93CF93DF93EC010E94761160
:102440008C01BE010E942D10882309F44FC0BE01EB
:10245000C8010E943719882309F448C0BE01C80189
:102460000E947819882309F441C08A81882371F079
:1024700001158CE5180739F00E3D8CE5180731F48D
:102480000E94A82433C00E94041230C006311C45AB
:1024900031F50E941023982F8A81209110013091EC
:1024A0001101882379F09A7A81E009F480E0809321
:1024B0009A02911102C069E201C065E3C9010E945C
:1024C000E2240AC080919A02811102C069E201C02F
:1024D00065E3C9010E94E4240E94612307C0CE0184
:1024E000DF91CF911F910F910C945C1180E0DF91EF
:1024F000CF911F910F91089580E090E00895089585
:10250000272F30E0280F311D8AE0829FF001839F42
:10251000F00D1124E60FF11DEE0FFF1FE759FE4FDE
:10252000859194910895880F991FFC01E052FC4E0B
:10253000859194910895CF93DF930E9480120E9419
:102540004F14EC0181159045C8F5C11580E4D807FA
:1025500008F023C1C03ED105D8F4C03CD10508F035
:102560000BC1C83AD10578F4C53AD10508F09AC034
:10257000C130D10509F48FC108F440C1C430D10580
:1025800008F089C13BC1CF3BD10508F496C036C1E4
:10259000C11590E2D90750F4C11521E0D20708F027
:1025A0007AC1C83ED10508F476C128C1C11580E3BF
:1025B000D80708F0E8C0CE019F70E1C0C11595E5CD
:1025C000D90708F043C0C11524E5D20708F0FCC0C4
:1025D000C11582E5D80708F5C11591E5D90708F0BE
:1025E000DFC0CE0174E0969587957A95E1F7837008
:1025F0009C2F937021E030E002C0220F331F9A9588
:10260000E2F73C68382BCF70C695C69580E2C89F2C
:10261000E0011124C22BD32B3EC19E01237033272E
:102620008C2F86958695C115D34508F0BEC0C1E0B4
:10263000D0E002C0CC0FDD1F2A95E2F720E2829F96
:10264000C0011124C82BD92BDC6825C1C11529E58F
:10265000D207A0F4C11588E5D80708F0BAC0C115A3
:1026600096E5D90708F0CAC08C2F0E94E3148F7139
:10267000C82FD0E0DC2FCC27D0620DC1C1152AE5D0
:10268000D20708F4ABC0CE0190568115904208F0F5
:10269000B5C08D2F8F710E94E314DD27D0628F713A
:1026A000D82BF9C0C53AD10509F4ABC0C63AD1055B
:1026B00009F0AAC0C2E8D0E4EEC0C83AD10509F4D6
:1026C000A6C0C93AD10509F4A5C0CA3AD10509F492
:1026D000A4C0CB3AD10509F4A3C0CC3AD10509F482
:1026E000A2C0CB3BD10509F4A1C0CC3BD10509F474
:1026F000A0C0CD3AD10509F49FC0C03BD10509F473
:102700009EC0CE3AD10509F49DC0CF3AD10509F457
:102710009CC0C13BD10509F49BC0C23BD10509F463
:102720009AC0C33BD10509F499C0C43BD10509F453
:1027300098C0C53BD10509F497C0C63BD10509F443
:1027400096C0C73BD10509F495C0C83BD10509F433
:1027500094C0C93BD10509F493C0CD3BD10509F420
:1027600092C0CE3BD10509F491C0CA3BD10509F412
:1027700090C0C0E0D4E48FC0CE01805C91090E947B
:102780009312EC0188C0CE019927D3FF03C0EC015E
:10279000D86C81C0EC01D06C7EC0DF70D06A7BC089
:1027A000DC2FCC27C16FD06A76C0C1E0D0E002C078
:1027B000CC0FDD1F2A95E2F720E2829FC001112491
:1027C000C82BD92BDA6867C0DC2FCC27C46FD06A3E
:1027D00062C0DC2FCC27C06FD06A5DC08C2F8F7099
:1027E0000E94E31494E0D695C7959A95E1F7CF70CF
:1027F000D0E0DC2FCC27D069C82B4DC0C0E0D0E0A2
:102800004AC0C1E8D0E447C0C3E8D0E444C0C2EE47
:10281000D4E441C0C9EED4E43EC0CAEED4E43BC027
:10282000C5EBD4E438C0C6EBD4E435C0C3EBD4E484
:1028300032C0C4EBD4E42FC0C7EBD4E42CC0CCEC42
:10284000D4E429C0CDECD4E426C0C3E8D5E423C049
:10285000CAE8D5E420C0C2E9D5E41DC0C4E9D5E486
:102860001AC0C1E2D6E417C0C3E2D6E414C0C4E281
:10287000D6E411C0C5E2D6E40EC0C6E2D6E40BC071
:10288000C7E2D6E408C0CFE6D4E405C0C0E7D4E48C
:1028900002C0CAE2D6E4CE01DF91CF91089582381A
:1028A000910569F1B0F48133910509F46DC048F4E4
:1028B0008932910509F463C08A32910509F469C02F
:1028C00008958533910509F455C089339105B9F010
:1028D0000895833E910569F138F4803E9105B1F089
:1028E000823E910509F10895863E9105A9F1873E42
:1028F0009105B9F1843E910509F064C023C020918F
:10290000E50520FD4FC021FD4DC008958091E505EE
:1029100080FD44C08091E60580FF44C08091E505BC
:1029200084FD42C083EE4DC08091E50582FF38C032
:10293000F5CF8091E50582FD33C08091E60580FDED
:1029400031C0ECCF8091E60581FF32C08091E50572
:1029500084FD2AC087EE35C08091E50583FF26C03F
:10296000F5CF8091E50583FD21C08091E60581FDCD
:102970001FC0ECCF8091E50585FD1CC01DC0809176
:10298000E50585FD19C016C08091E50586FD16C0D8
:1029900017C08091E50586FD13C010C089E311C002
:1029A00082EE0FC080EE0DC080E00BC086EE09C045
:1029B00084EE07C089E205C085E303C08AE201C056
:1029C00081E390E008959091E50592FF0DC0282FD6
:1029D0002871283019F4877F846006C0282F24715D
:1029E000243011F48B7F886093FF0DC0282F28714D
:1029F000283119F4877E846106C0282F2471243180
:102A000011F48B7E88612091E60520FF0DC0382FE0
:102A10003871383019F4877F816006C0382F3171E2
:102A2000313011F48E7F886021FF0DC0282F28716E
:102A3000283119F4877E816106C0282F2171213148
:102A400011F48E7E886194FD877E0895E82FF0E072
:102A5000EE0FFF1FE752FC4F80819181089508958A
:102A600008950C9405110C9430150C943315CF93E4
:102A7000DF93A3E7B2E04DE752E061E070E08D91B3
:102A8000E82FE295EF70F0E021A18F70EB0102C01A
:102A9000CC0FDD1F8A95E2F7CE019C2F90959223F3
:102AA00091A392A1892B82A34A175B0741F7109249
:102AB000D8031092D7031092DA031092D90381E061
:102AC0000E94B115DF91CF910C94E911CF93DF9360
:102AD0006091D7037091D8031092D8031092D70356
:102AE000E3E7F2E020E030E0A1E0B0E04191C42F64
:102AF000C295CF70D0E088A190E04F7002C095954C
:102B000087954A95E2F780FD08C0AD01022E02C00C
:102B1000440F551F0A94E2F702C040E050E0809154
:102B2000D7039091D803842B952B9093D80380934F
:102B3000D7032F5F3F4F2A303105C1F6C1E0681738
:102B4000790709F4C0E02C2F41E069ED73E087EDCF
:102B500093E00E94B2150E94F1118C2FDF91CF916A
:102B600008950895FF920F931F93CF93DF93F82E4C
:102B7000092F162FD72FC42F222349F081E08093ED
:102B80009D020E94712590939C0280939B028091EC
:102B90009D028823D9F080919B0290919C020E9413
:102BA0008925069798F0EF2DF02FA12FBD2F80E0FB
:102BB00090E04C2F50E08417950734F42191319127
:102BC0002D933D930196F7CF10929D02DF91CF9107
:102BD0001F910F91FF900895EF92FF920F931F9313
:102BE000CF93DF93EC017B0164E670E088E70E94FD
:102BF000A91A8C01EC0EFD1ECE15DF0561F017FD44
:102C00000AC0FE01849164E670E00E94001B8C0102
:102C10002196892B89F30E94841BC801DF91CF91F3
:102C20001F910F91FF90EF900895EBEDF3E080E09E
:102C300092E0DF019C011D9221503040E1F7F093BA
:102C4000E005E093DF058FEF9FEF9093CA0280933A
:102C5000C90208950E9445118093C50280FD02C0FB
:102C600080E801C080E28093C4020E94A31A6DE054
:102C700070E087EF93E10E94EC15892B11F080E062
:102C800008958091C50263E070E081FD03C084EF88
:102C900093E102C081EF93E10E94EC15892B79F753
:102CA0006DE070E084EE93E10E94EC15892B39F71A
:102CB0000E947D25DC01CB01805A9541AF4FBF4F6B
:102CC0008093DB059093DC05A093DD05B093DE05D2
:102CD0000E94151681E08093C8028093C70210926B
:102CE000C60208952091C40236E0839FC0011124DA
:102CF000629F800D911D1124811522E0920714F02E
:102D000080E090E085529C4F9093E0058093DF0532
:102D100008952091DF053091E005255D3340409115
:102D2000C402642F70E0C9010E946E2C481B46301B
:102D300010F4240F311D211582E0380710F020E037
:102D400030E025523C4F3093E0052093DF05089595
:102D5000CF93DF938A3011F481E003C08D3029F4E2
:102D600080E0DF91CF910C941E17C62F682F8091C1
:102D7000DF059091E00526E0FC01AEE9B2E00190AC
:102D80000D922A95E1F7613E30F026E0FC011192A8
:102D90002A95E9F70AC0F6E06F9FB00111246C5F35
:102DA0007B4E46E050E00E94882CC11135C0C09196
:102DB000DF05D091E00546E050E0BE018EE992E0EB
:102DC0000E94912C892BB1F1CB5DD3409E0185E00F
:102DD000369527958A95E1F781E090E0AC0102C035
:102DE000440F551F2A95E2F72091C9023091CA027B
:102DF000242B352B269645E0D695C7954A95E1F7C5
:102E000002C0880F991FCA95E2F7822B932B9093EB
:102E1000CA028093C9020EC0E091DF05F091E0057F
:102E20009F012A5F3F4F2E173F0709F2808180954F
:102E30008193F9CFDF91CF910C948916CF93E82F2E
:102E40002091DF053091E0052B5D33404091C402B5
:102E5000642F70E0C9010E946E2C481B842FEE2362
:102E600059F066E00E94622CC82FC150B0F060E0BB
:102E700080E20E94A816F9CFA901480F511D411503
:102E8000524018F080E020E030E0280F311D25523C
:102E90003C4F3093E0052093DF05CF9108951F93B9
:102EA000CF93DF93EC01162FFE018491882329F044
:102EB000612F0E94A8162196F7CFDF91CF911F9125
:102EC00008950E947D25DC01CB01805A9541AF4FCA
:102ED000BF4F8093DB059093DC05A093DD05B09395
:102EE000DE058091C70281110BC062E070E082EEC6
:102EF00093E10E94EC15892B19F481E08093C702BD
:102F00008091C70208956F927F928F929F92AF92A5
:102F1000BF92CF92DF92EF92FF920F931F93CF93C6
:102F2000DF932091C9023091CA022115310509F4BD
:102F3000D4C08091C6028111D0C061E070E0082F3A
:102F400010E03B01082E02C0660C771C0A94E2F7E1
:102F5000A30142235323452B11F48F5FF0CF9091AF
:102F6000C502980165E0220F331F6A95E1F790FDD5
:102F700012C08295880F807680930B01220F232F39
:102F8000221F330B319520930E01815E80930C013B
:102F900010920F0112C045E0369527954A95E1F74A
:102FA000220F220F220F20930B0110920E01295F96
:102FB00020930C0183E080930F0124E630E047E08A
:102FC00050E069E071E088E70E94301B892B09F02E
:102FD00084C08091C50280FD23C0A80195E0440F04
:102FE000551F9A95E1F745525C4F04E610E020E248
:102FF00030E060E488E70E94571B892B09F06DC020
:103000000E946117E301C095D0958091C90290910B
:10301000CA02C823D923D093CA02C093C9025DC093
:1030200080E2E4EAF2E0DF011D928A95E9F785E0AB
:10303000000F111F8A95E1F7A1E8B2E04DE752E0D9
:10304000992493942D91EA018991AE01B801680FFA
:10305000711D65527C4F30E02C553D4FF90197E0D2
:103060007F01E21AF30AA92C01C0AA0CEA94EAF73C
:103070007B01B12CE70189917E018A21892E8B1871
:10308000D82DD770CD2E0D2E000CDD08C82F01C015
:10309000CC0FDA95EAF7D194C194D108D7E0CD22CC
:1030A000DD2401C08695CA94EAF78C2BD0808D2947
:1030B0008083B39488E0B812DDCF915031969F3F62
:1030C00079F6C2E0A538BC0709F0BCCF04E610E0F1
:1030D00020E230E044EA52E08CCFDF91CF911F91A3
:1030E0000F91FF90EF90DF90CF90BF90AF909F90A7
:1030F0008F907F906F9008958091C702882369F028
:1031000062E070E080EE93E10E94EC15892B19F0EB
:103110008091C70208951092C7029091C70281E082
:1031200089270895CF92DF92EF92FF928091C80293
:10313000882321F160E080E00E9472160E94501105
:103140000E9483178091C7028823C1F0C090DB05DD
:10315000D090DC05E090DD05F090DE050E947D2535
:10316000DC01CB018C199D09AE09BF09B7FD06C072
:10317000FF90EF90DF90CF900C947C18FF90EF9031
:10318000DF90CF9008950F931F93CF93DF93C62FB7
:10319000D42F122FFC0182818823C9F06093CD02C5
:1031A0000E9471259093CC028093CB0280E28C0F19
:1031B000883008F057C0C77081E001C0880FCA95F9
:1031C000EAF7DF91CF911F910F910C94C11D80916F
:1031D000CD02681330C08091CB029091CC020E9446
:1031E0008925883C910538F500E20D0FCD17B9F01F
:1031F00080E28C0F883040F4C77081E001C0880FF6
:10320000CA95EAF70E94C81D083028F581E09D2F75
:10321000977001C0880F9A95EAF70E94C11D812F0F
:103220000E94AE1D0830F0F4D77081E001C0880F15
:10323000DA95EAF70AC080E28C0F883098F4C770FC
:1032400081E001C0880FCA95EAF7DF91CF911F9105
:103250000F910C94C81D812FDF91CF911F910F9179
:103260000C94AE1DDF91CF911F910F9108959C0199
:10327000CB01233F4CE53407F9F078F4283DFCE519
:103280003F07B9F0293D4CE5340711F1273D3C4596
:1032900031F526E241EE61EE1EC0253FFCE53F0719
:1032A00099F070F0263F3C45D1F427E245EE66EEFA
:1032B00012C027E245EE0EC026E241EE60EE0BC0E2
:1032C00027E245EE64EE07C026E241EE62EE03C05F
:1032D00028E241E065EE0E94C31880E00895FC01F9
:1032E0008281882319F01092CD02089581E008951B
:1032F000CF93DF93EC01FB018281882309F41FC186
:10330000C230FCE5DF0708F41BC1C6319CE5D907D4
:1033100038F09E012A5F3C452930310508F010C184
:103320000E941B249093E6058093E505C031ECE5EF
:10333000DE0709F4C3C008F041C0C8308CE5D807E7
:1033400009F49AC0F0F4C430ECE5DE0709F487C054
:1033500068F4C2308CE5D80709F477C0C330DC4587
:1033600009F0E3C08091E505826076C0C630ECE5E7
:10337000DE0709F46EC008F07BC08091E505886027
:103380006BC0CC308CE5D80709F485C068F4CA302E
:10339000ECE5DE0709F474C008F079C00E94E21E73
:1033A0008091E505806858C0CE308CE5D80709F4D7
:1033B00076C008F07FC08091E5058BC0CB3FECE57F
:1033C000DE0709F44FC018F5C3318CE5D80709F4BE
:1033D0007DC078F4C131ECE5DE0709F473C0C23179
:1033E000DC4509F0A2C00E94E21E8091E5058F77BE
:1033F00033C0C5318CE5D80709F472C008F486C023
:10340000CA3FDC4509F091C08091E6053EC0CF3F40
:10341000FCE5DF0709F45FC058F4CD3F9CE5D90710
:1034200009F444C008F43FC08091E60582602DC0D5
:10343000C130FDE5DF0709F475C008F45DC0C23096
:10344000DD4509F072C080E06EC08091E5058160C5
:1034500003C08091E50580618093E50566C0809199
:10346000E50511C08091E60582608093E6055DC0A8
:103470008091E5058062F0CF8091E5058064ECCF16
:103480008091E50588608460E7CF8160EECF809110
:10349000E5058E7FE1CF8091E5058D7FDDCF8091C1
:1034A000E505877FD9CF8091E60518C08091E605B4
:1034B0008D7FDBCF8091E5058F7ECECF8091E505B6
:1034C0008F7DCACF8091E5058F7BC6CF8091E505C2
:1034D000877F8B7FC1CF8091E6058D7F8E7FC5CFA3
:1034E0008091E50582FB222720F991E0922790FB4D
:1034F00082F990FB83F9B0CF8091E605982F9095E3
:1035000091708E7F892B90FB81F9AFCF0E94E21ED4
:103510008091E50587FB222720F991E0922790FB17
:1035200087F99ACF81E00E94AA248091E5059091C5
:10353000E6050E942C240E94E21E80E001C081E08A
:10354000DF91CF9108951092B9008CE08093B8007C
:103550000895EF92FF920F931F93CF93DF93182F4D
:10356000EB011092BC0084EA8093BC000E9471259C
:103570007C018091BC0087FD0EC0CF3F8FEFD80744
:10358000C1F30E9471258E199F098C179D0788F33E
:103590008EEF9FEF2EC08091B900887F883041F078
:1035A0008091B900887F803119F08FEF9FEF21C0A3
:1035B0001093BB0084E88093BC000E9471258C01AD
:1035C0008091BC0087FD0CC0CF3F8FEFD807C1F3BF
:1035D0000E947125801B910B8C179D0788F3D8CF13
:1035E0008091B900887F883111F08034F1F680E055
:1035F00090E0DF91CF911F910F91FF90EF90089590
:103600000F931F93CF93DF93EB018093BB0084E86C
:103610008093BC000E9471258C018091BC0087FDC5
:103620000EC0CF3F8FEFD807C1F30E947125801BDA
:10363000910B8C179D0788F38EEF9FEF0CC02091A4
:10364000B900287F81E090E0283211F480E090E01A
:10365000919581959109DF91CF911F910F910895D7
:10366000CF92DF92EF92FF920F931F93CF93DF934E
:103670006B018A017901B9010E94A91AE6010C0DBA
:103680001D1DC017D10761F424E92093BC00DF9110
:10369000CF911F910F91FF90EF90DF90CF90089501
:1036A00097FDF2CFB70189910E94001BEACFCF921C
:1036B000DF92EF92FF920F931F93CF93DF93C62F6A
:1036C0006A017901B8010E94A91A97FD11C0B801D9
:1036D0008C2F0E94001BE601EC0CFD1CCE15DF05B3
:1036E00039F097FD05C0B80189910E94001BF6CF03
:1036F00024E92093BC00DF91CF911F910F91FF909F
:10370000EF90DF90CF90089584E98093BC000895F6
:103710009093D3028093D2020895E091D202F09167
:10372000D302309721F00190F081E02D099480E0E0
:103730000895E091D202F091D302309721F00280F7
:10374000F381E02D099408952091D0023091D102A7
:103750002817390771F09093D1028093D002E0913D
:10376000D202F091D302309721F00680F781E02D4C
:10377000099408952091CE023091CF02281739077D
:1037800071F09093CF028093CE02E091D202F0913B
:10379000D302309721F00084F185E02D099408953B
:1037A00085B7806885BF85B7806885BF089508950F
:1037B0000C94D71B0C94D81B0C94D71B0C94D71BC0
:1037C0000E94D01B0E94DC1B0C94DA1B81E0089540
:1037D0000E9468250E94371580E00E942A160E94E8
:1037E000EA250C94DE1BBF92CF92DF92EF92FF92FC
:1037F0000F931F93CF93DF93CDB7DEB72A970FB602
:10380000F894DEBF0FBECDBF0E946615B82E0E9491
:10381000E61B882309F43FC080E00E9426157C0146
:10382000C090D502D090D602C826D926C114D104A2
:1038300091F18091200381FD0E942F1580E001E02D
:1038400010E0960120233123232B01F18E831F8268
:10385000E022F12281E0EF2809F480E088870E94CD
:1038600071258160782F9A8789874E815F8168856D
:103870008A850E948B1C8091D5029091D6020827E0
:1038800019271093D6020093D50215C08F5F000F41
:10389000111F8A30B1F68FEF89838A831B820E94C1
:1038A00071258160782F9D838C8349815A816B813A
:1038B0008D810E948B1C0E949218B1100E9461178A
:1038C0000E948D1B9091D4028917A9F00E948D1B34
:1038D0008093D4022A960FB6F894DEBF0FBECDBFF8
:1038E000DF91CF911F910F91FF90EF90DF90CF90DC
:1038F000BF900C94FA112A960FB6F894DEBF0FBE53
:10390000CDBFDF91CF911F910F91FF90EF90DF908E
:10391000CF90BF900895CF93DF93CDB7DEB72B97AD
:103920000FB6F894DEBF0FBECDBF4F8358876987AF
:103930007A878B87DE01119686E0FD0111928A95C8
:10394000E9F785E0FE01379601900D928A95E1F73F
:1039500049815A816B817C818D819E810E94B22137
:103960002B960FB6F894DEBF0FBECDBFDF91CF917F
:103970000895FC01808191810E94F6220895882398
:1039800009F4BFC0682F8CEF860F813A38F480911C
:103990001001909111010E94E2240CC080E2860F78
:1039A000883050F4677081E001C0880F6A95EAF7AB
:1039B0000E9413230C9461238BE5860F833070F4EF
:1039C000653A29F0663A31F083E890E005C081E875
:1039D00090E002C082E890E00C94A41B88E5860F7A
:1039E000873108F08EC0683A09F445C0693A09F495
:1039F00045C06A3A09F445C06B3A09F445C06C3ACF
:103A000009F445C06B3B09F445C06C3B09F445C063
:103A10006D3A09F445C0603B09F445C06E3A09F4BB
:103A200045C06F3A09F445C0613B09F445C0623BAB
:103A300009F445C0633B09F445C0643B09F445C043
:103A4000653B09F445C0663B09F445C0673B09F492
:103A500045C0683B09F445C0693B09F445C06D3B6E
:103A600009F445C06E3B09F445C06A3B09F445C002
:103A700080E090E044C082EE90E041C089EE90E0AA
:103A80003EC08AEE90E03BC085EB90E038C086EB0C
:103A900090E035C083EB90E032C084EB90E02FC023
:103AA00087EB90E02CC08CEC90E029C08DEC90E08E
:103AB00026C083E891E023C08AE891E020C082E933
:103AC00091E01DC084E991E01AC081E292E017C044
:103AD00083E292E014C084E292E011C085E292E0B9
:103AE0000EC086E292E00BC087E292E008C08FE64B
:103AF00090E005C080E790E002C08AE292E00C947A
:103B0000BA1B0895882349F1682F8CEF860F813AFC
:103B100038F480911001909111010E94E4240CC0AE
:103B200080E2860F883050F4677081E001C0880F12
:103B30006A95EAF70E9419230C9461238BE5860F9E
:103B4000833020F480E090E00C94A41B685A673125
:103B500020F480E090E00C94BA1B0895CF93C82F16
:103B60000E94BF1CC93349F42FEF87EE93E0215028
:103B700080409040E1F700C000008C2FCF910C9462
:103B8000821D882321F00E9413230C946123089541
:103B9000882321F00E9419230C9461230895CF9269
:103BA000DF92EF92FF920F931F93CF93DF937C01ED
:103BB000D62FC72EC72FCF70FC01158112951F700D
:103BC000D280D1100E9433230E940923882371F0F0
:103BD000DD2061F080E28D0F883040F082E00E94AD
:103BE0009B230E94092301E0082701C000E09C2DCF
:103BF00092959F70943028F48C2D807F923068F0DD
:103C00003BC09C3009F488C09F3009F08CC04C2F19
:103C10006D2FC7010E947F1286C0882311F0C295C4
:103C2000C07FDD2099F0CC2309F459C080E28D0FCC
:103C3000883010F0D11104C08C2F0E94132303C0D0
:103C40008C2F0E9426230E94612349C08D2F0E9441
:103C5000821DCC2309F467C080E28D0F883010F0FC
:103C6000D11104C08C2F0E94192303C08C2F0E94F5
:103C70002C230E94612357C0803211F0C295C07F6F
:103C8000DD2319F0D130C1F01FC0DD2071F0112308
:103C900041F0113031F40E9446238C2B0E944E23B8
:103CA00042C00E9446238C2B1FC0112311F01130FB
:103CB000D1F10E9457232CC0DD2019F0163098F561
:103CC00012C0153080F524C0DD2089F0112359F091
:103CD000F701858180FF03C08F70858304C08D2F1D
:103CE0000E94BF1C20C08C2F0E94C11D1CC011232C
:103CF00079F0D93349F4FFEF27EE83E0F15020400B
:103D00008040E1F700C000008D2F0E94821D0BC093
:103D10008C2F0E94C81D07C04C2F6D2FC7010E9419
:103D20007C120E946022002389F00E94052380FDFE
:103D30000DC0F7011282C701DF91CF911F910F9142
:103D4000FF90EF90DF90CF900C94AF1EDF91CF915A
:103D50001F910F91FF90EF90DF90CF900895CF9338
:103D6000DF93EC01988189812B813C81232B31F0F9
:103D70008F3F31F481E09F3F19F403C081E001C01F
:103D800080E080FD0EC0CE010E941912882349F008
:103D9000688179818A810E940123BC01CE010E9441
:103DA000CF1DDF91CF9108950E9433230E944323BA
:103DB0000C94612380911001909111010E94E624DE
:103DC0000C94D41E0E9423230C94DA1EE92FE29552
:103DD000EF704E2F50E0FA013297EE30F105B0F45B
:103DE000E659FF4F0C94822C803F91F018F4883EE6
:103DF00068F40EC0843F51F40BC0883E48F0813F08
:103E000029F406C093FB882780F9089580E008957F
:103E100081E008950E94F6220E94E61E0895CF9345
:103E2000DF9300D000D01F92CDB7DEB70F900F9078
:103E30000F900F900F90DF91CF910895CF93DF9364
:103E400000D000D000D0CDB7DEB726960FB6F894DC
:103E5000DEBF0FBECDBFDF91CF9108951F93CF93EB
:103E6000DF93C091D70216E08091D802C81799F06D
:103E7000D0E01C9FF0011D9FF00D1124E752FD4F73
:103E80004081518162817381848195810E941E1FCE
:103E90002196C770E9CFDF91CF911F91089540918E
:103EA000090350910A0360910B0370910C038091F8
:103EB0000D0390910E030C941E1FCF9380910E035F
:103EC00082958F7009F05FC080910B03882309F4FD
:103ED0005AC08091D702B091D80270910903A09185
:103EE0000A0340910C0350910D0391E07F3F09F0CC
:103EF00090E0692FC6E08B1709F445C041155105C4
:103F000021F0AF3F21F020E003C021E001C0262FC7
:103F100090E020FD35C0C89FF001C99FF00D11242D
:103F2000E752FD4F21812A132BC02081271328C07F
:103F30002281211125C0238134812417350710F4F3
:103F400021503109241B350B283C3105C8F4209140
:103F50000E032F70206120930E0326E0289FF001AE
:103F6000299FF00D1124E252FD4F80818F708061F6
:103F7000808389E093E00E94AF1ECF910C942E1FA6
:103F800001968770B8CFCF910895AF92BF92CF922C
:103F9000DF92EF92FF920F931F93CF93DF93CDB7F2
:103FA000DEB761970FB6F894DEBF0FBECDBF8C01B0
:103FB00085E0F801DE011D9601900D928A95E1F7EA
:103FC000D8014C9111965C9111971296EC9030911A
:103FD000090360910A0380910C0390910D030097EF
:103FE00031F06F3F31F421E03F3F19F403C021E08D
:103FF00001C020E0B22FB170BB2E20FD60C1F801DE
:10400000C380D480A0900B03AA2009F4EEC02091B5
:104010000E03C816D90628F0D601A81BB90BCD018E
:1040200004C0809590958C0D9D1DFF24F394883CD1
:10403000910580F0F12C207F09F09CC07C2DD98A5D
:10404000C88A6E2D89890E940F1F89E093E00E9423
:10405000AF1E2DC1822F807F09F054C0561314C0AB
:10406000431312C0FE2CE1100FC02F70206120936B
:104070000E030E944F1F89E093E00E94AF1E8091C3
:104080000E03F80185835CC1CD2831F05F3F31F428
:1040900081E04F3F19F403C081E001C080E080FD62
:1040A00003C081E08E2502C080E090E0F82FF1701F
:1040B000FF2E80FF1CC08091D7022091D80236E0ED
:1040C000821709F41AC190E0389FF001399FF00D72
:1040D0001124E752FD4F6181561306C060814613DB
:1040E00003C06281E61203C001968770E9CFFE2CFF
:1040F000EE2009F425C180910E03816080930E03A8
:10410000F12C1EC1561309C0431307C0E11005C0AE
:1041100080910E03F8018583A4C04D875E878D854D
:104120009E850E940A1F882379F1EE2069F1209173
:104130000E03822F82958F7090E0029774F0809129
:10414000090390910A0398878F831986DB86CA86B4
:104150002C87CE0107960E94AF1E86E0F801A9E0E9
:10416000B3E001900D928A95E1F70E945D1F0E94D5
:104170004F1F0DC0561771F04D875E878D859E8548
:104180000E940A1F81111AC0C8010E94AF1EFF249D
:10419000F394D6C04313F0CFE110EECF80910E031D
:1041A000F8018583C8010E94AF1E86E0E9E0F3E0D4
:1041B000DF011D928A95E9F7FA2CC2C0EE2021F3A7
:1041C00020910E03822F82958F7090E002972CF23F
:1041D0008091090390910A039A8389831B82DD826F
:1041E000CC822E83CE010196B6CFC816D90628F010
:1041F000F601E81BF90BCF0104C0809590958C0D5A
:104200009D1D883C910548F0F12C7C2DD98AC88AE7
:104210006E2D89890E940F1F4AC0FE2CEE2009F4E2
:10422000B3CF561333C0431331C020910E0320FD8A
:1042300024C0822F82958F70482F50E04115510580
:10424000E1F0D80115962C9315974F30510549F0A0
:104250008F5F982F9295907F822F8F70892B159664
:104260008C93C8010E94AF1E86E0F801A9E0B3E07C
:1042700001900D928A95E1F73DC086E0F801A9E032
:10428000B3E001900D928A95E1F75AC04D875E87A1
:104290008D859E850E940A1F81115FCF80910E033C
:1042A000816080930E03C8010E94AF1E49C0E9E0FF
:1042B000F3E086E0DF011D928A95E9F71BC0EE204E
:1042C00009F462CF4D875E878D859E850E940A1F07
:1042D000F82E882309F458CF86E0F801A9E0B3E06E
:1042E00001900D928A95E1F789E093E00E94B91C54
:1042F0000E945D1F0E944F1F23C04D875E878D85E2
:104300009E850E94F622292F22952F70223028F4B4
:104310009F7039F0811105C00BC0243028F49F70C4
:1043200049F4805E883020F0C8010E94AF1EBF2C87
:10433000FB2C06C0D80115969C91907F91F7F8CF81
:104340008F2D61960FB6F894DEBF0FBECDBFDF9103
:10435000CF911F910F91FF90EF90DF90CF90BF9082
:10436000AF9008951F93CF93DF93CDB7DEB72C970F
:104370000FB6F894DEBF0FBECDBF4F835887698755
:104380007A878B879C87CE0107960E94C51F88235A
:10439000D1F09F8188852A853B85232B31F08F3F83
:1043A00031F481E09F3F19F403C081E001C080E057
:1043B00080FD47C04F81588569857A858B859C85AE
:1043C0000E941E1F3EC086E0FE013796DE01119658
:1043D00001900D928A95E1F7FF81E8856A857B85DA
:1043E0006115710531F0EF3F31F481E0FF3F19F4C1
:1043F00003C081E001C080E080FD23C02091D8028D
:1044000030E0C9010196877099274091D70250E0AA
:1044100084179507F1F1F983EA837D836C8396E035
:10442000929FD001939FB00D1124A752BD4FFE0162
:10443000319601900D929A95E1F78093D8020E94EF
:104440002E1F16E08091D7029091D802891771F142
:10445000189FC001112487529D4F0E94C51F8823B9
:1044600029F1E091D7021E9FF0011124E752FD4F80
:104470004081518162817381848195810E941E1FD8
:104480008091D70290E00196877099278093D70298
:10449000D9CF0E94E21E1092D8021092D702E9E012
:1044A000F3E086E0DF011D928A95E9F72C960FB6BE
:1044B000F894DEBF0FBECDBFDF91CF911F9108955D
:1044C000EF92FF920F931F93CF93DF938C01892B71
:1044D00009F46CC0F12CEE24E394E8012196F80174
:1044E0008491843740F4843008F051C0813081F0E9
:1044F000823019F15BC0853709F444C0A8F19CE70C
:10450000980F903708F052C08F770E94821D41C0EB
:104510000E5F1F4FFE01849190E2980F983050F487
:104520008770FE2D01C0FF0F8A95EAF78F2F0E943A
:10453000362314C00E94BF1C2DC00E5F1F4FFE010A
:10454000849190E2980F983060F48770FE2D01C03E
:10455000FF0F8A95EAF78F2F0E943C230E94612368
:1045600019C00E94821D16C00E5F1F4FFE01C4912C
:10457000CC2381F08FE99FE00197F1F700C00000A4
:10458000C150F6CF0E5F1F4FFE01F49003C00E9492
:10459000BF1C8E018F2D882309F49FCFEFE9FFE028
:1045A0003197F1F700C000008150F5CFDF91CF9136
:1045B0001F910F91FF90EF90089508950C94DD22C4
:1045C0000E94DE2260930F03709310038093110307
:1045D000909312030C94D41E60910F0370911003FA
:1045E00080911103909112030C94B823CF93DF9321
:1045F000EC010E94EC22BE010E949B12DF91CF9140
:104600000895CB010E94F6220895809113038770CC
:10461000089590911303977081E009F480E0089564
:1046200080911F03089590911F03892B80931F038E
:104630000895809590911F03892380931F03089507
:1046400080931F03089510921F03089590911E03F5
:10465000892B80931E030895809590911E038923D2
:1046600080931E03089510921E03089590911D03D8
:10467000892B80931D030895809590911D038923B4
:1046800080931D03089510921D03089580911403D3
:10469000089508950C9449230C944A23909114038F
:1046A000981721F0809314030C944C230895809163
:1046B0001403882329F01092140380E00C944C23F7
:1046C0000895E0911001F091110180911F03808302
:1046D000E0911001F0911101908180911E03892BCE
:1046E0008083E0911001F0911101908180911D0370
:1046F000892B808380911403882381F0E09110013D
:10470000F09111019081892B80838091100190910B
:1047100011010E94AF2481110E9457238091100142
:10472000909111010C94991B0C944923109213033E
:1047300080E00C949423209113038095822380932E
:104740001303982F977049F430E0082E000C990B52
:104750002817390711F00C949623089590E08823C8
:1047600029F02FEF280F82239F5FF9CF892F08951B
:10477000CF92DF92EF92FF926C01EE24FF24C114DE
:10478000D104E104F10421F0C701B60120E101C028
:1047900020E0C72ED82EE92EFF24C114D104E10455
:1047A000F10419F0285FC701B6016B017C0154E0E8
:1047B000F694E794D794C7945A95D1F7C114D104CD
:1047C000E104F10419F02C5FC701B6016B017C0113
:1047D00042E0F694E794D794C7944A95D1F7C11470
:1047E000D104E104F10419F02E5FC701B601DC0128
:1047F000CB01B695A79597958795892B8A2B8B2BFF
:1048000009F02F5F822FFF90EF90DF90CF900895F7
:1048100080E090E00E94A62C21E08C3E9E4F09F0A3
:1048200020E0822F089582E090E00C949E2C83E09B
:1048300090E00C949E2CCF9384E090E00E949E2CFC
:10484000C82F81E290E00E949E2C2C2F30E0A9011D
:10485000582BCA01CF910895CF93C92F682F84E0B8
:1048600090E00E94AC2C6C2F81E290E0CF910C94F0
:10487000AC2CAB01BC018FE090E00C94BE2CAB01E2
:10488000BC0183E190E00C94BE2C60E070E0CB01B1
:104890000C943F2460E070E0CB010E9439240C941A
:1048A00045246CEE7EEF80E090E00E94CA2C60E030
:1048B00082E090E00E94AC2C60E083E090E00E94F7
:1048C000AC2C10920F03109210031092110310924F
:1048D000120360E084E090E00E94AC2C60E081E292
:1048E00090E00E94AC2C60E085E090E00E94AC2C4F
:1048F00060E086E090E00E94AC2C6FEF87E090E0F3
:104900000E94AC2C40E050E0BA0188E090E00E94A8
:10491000BE2C60E08DE090E00E94AC2C40E050E0C6
:10492000BA0188E190E00E94BE2C60E087E190E04F
:104930000E94AC2C40E050E0BA018CE190E00E9473
:10494000BE2C60E080E290E00E94AC2C0C944A24E3
:104950000C945124682F8EE090E00C94AC2CFC0158
:10496000329697E080E0915029F021912223D9F3EB
:104970008F5FF9CF08959C01FC0132969FEF80E094
:104980004191461789F09F3F19F4411101C0982FBA
:104990008F5F8630A9F79F3F39F0F901E90FF11DCC
:1049A00097FDFA956283089508959C012A5F3F4F11
:1049B000FC014281461301C01282019682179307BF
:1049C000B9F708950C94BB240C94D524029626E0E4
:1049D000FC0111922A95E9F7089508950C94ED24AD
:1049E0000C94ED240E94F0240E9466150E94EE248F
:1049F00080E00E94261521E0892B09F420E0822F17
:104A000008950C94ED240C9401250E9403258091B7
:104A1000EB05843049F11092210320E488E190E015
:104A20000FB6F894A895809360000FBE20936000A5
:104A300080E00E94FA110E94032583B7817F846081
:104A400083BF83B7816083BF7894889583B78E7F57
:104A500083BF0FB6F894A895809160008861809319
:104A60006000109260000FBE08950C94ED240E9427
:104A7000E21E0E948D1B0E94FA110C9435251F9294
:104A80000F920FB60F9211248F939F93AF93BF9302
:104A900080912103811113C08091E1059091E2057D
:104AA000A091E305B091E4054196A11DB11D80934D
:104AB000E1059093E205A093E305B093E405BF916F
:104AC000AF919F918F910F900FBE0F901F901895EF
:104AD00082E084BD93E095BD9AEF97BD80936E0010
:104AE00008952FB7F8948091E1059091E205A09187
:104AF000E305B091E4052FBF08952FB7F8946091B6
:104B0000E1057091E2058091E3059091E4052FBFE6
:104B10000895CF92DF92EF92FF920F931F932FB7DA
:104B2000F8944091E1055091E2056091E3057091A0
:104B3000E4052FBF6A017B01EE24FF248C0120E0F5
:104B400030E0C016D106E206F30610F441505109D8
:104B50009A01281B390BC9011F910F91FF90EF900B
:104B6000DF90CF90089578941F920F920FB60F9216
:104B700011248F939F93AF93BF938091E105909100
:104B8000E205A091E305B091E4050196A11DB11DD8
:104B90008093E1059093E205A093E305B093E405CB
:104BA000BF91AF919F918F910F900FBE0F901F906B
:104BB000189587E797E790930108809300089AE09B
:104BC00088E10FB6F894A895809360000FBE90938B
:104BD0006000FFCF0E940824811102C00E94A82417
:104BE0000E941324809320030E941B249093E605C7
:104BF0008093E5050E941724682F70E080E090E024
:104C00000C94E02280912A03089508950895CF938B
:104C1000DF93EC010E94A727823011F0843039F530
:104C200081E08093E9008FEF9091E800815095FD3D
:104C300006C095ED9A95F1F700008111F5CF8091AE
:104C4000E80085FF14C040E050E068E070E0CE016D
:104C50000E94C4278091E8008E778093E80088E066
:104C6000FE01A2E2B3E001900D928A95E1F7DF9197
:104C7000CF91089508958091EA05811109C00E949D
:104C800055290E94B2298091E20084608093E2005D
:104C900008951092EA050895089508950C94372513
:104CA00042E061EC81E00C94CE288091ED058330E8
:104CB00009F460C030F4813071F0823009F499C099
:104CC00008958A3009F485C08B3009F46BC08930AF
:104CD00009F0A7C020C08091EC05813A09F0A1C07D
:104CE0008091E800877F8093E8008091F0059091A3
:104CF000F105892B21F468E082E293E003C060E0D3
:104D000080E090E070E00E940F288091E8008B77AF
:104D10008093E80008958091EC05813209F081C00C
:104D20008091F0059091F105892B09F07AC080916E
:104D3000E800877F8093E8008091E80082FD05C04D
:104D40008091EB058111F8CF6CC02091F300809128
:104D5000F20090E0922B029729F48091F1008B7F72
:104D6000813021F48091F10080932A038091E80042
:104D70008B7753C08091EC05813A09F052C0809145
:104D8000F0059091F105892B09F04BC08091E80066
:104D9000877F8093E8008091E80080FFFCCF8091BE
:104DA0001C0136C08091EC058132D9F58091F00567
:104DB0009091F105892BA9F58091E800877F809378
:104DC000E8000E9403298091EE0580931C010C9459
:104DD000E21E8091EC05813221F58091E800877F09
:104DE0008093E8000E9403298091EF0580932B03B4
:104DF00008958091EC05813AA1F48091E800877FC5
:104E00008093E8008091E80080FFFCCF80912B0325
:104E10008093F1008091E8008E778093E8000C94F5
:104E20000329089584B7877F84BF0FB6F894A895A7
:104E300080916000886180936000109260000FBED6
:104E400090E080E80FB6F894809361009093610041
:104E50000FBE0E94E01B0E9455290E94B22980913A
:104E6000E20084608093E20078940E94472C0E94C4
:104E7000E81B82E191E00E94881B8091EB05853060
:104E800069F40E9405258091E9058823B1F30E9409
:104E9000F224882391F30E94AE27EFCF0E94F31BE8
:104EA000ECCF0C945327292F332723303105C1F041
:104EB00058F42130310579F022303105C1F582E214
:104EC00090E022E739E137C02132310511F1223279
:104ED000310531F12CC082E190E024E939E12BC0A9
:104EE00099278130910561F040F08230910559F0A9
:104EF0000397E9F4E4E4F9E108C0EEE6F9E105C05E
:104F0000E6E5F9E102C0EAE4F9E1849190E09F016D
:104F100012C0672B61F489E090E024E839E10BC00E
:104F2000672B29F480E490E026EA39E104C080E0B0
:104F300090E020E030E0FA013183208308958091F1
:104F4000EB05843011F081E0089582E008958091AE
:104F50002C03811102C00C949F27089580E189BD24
:104F600082E189BD09B400FEFDCF8091D8008F7D1C
:104F70008093D8008091E00082608093E00080916F
:104F8000E00081FDFCCF0895CF92DF92EF92FF9277
:104F90000F931F93CF93DF93EC018B017A010E9453
:104FA0002229811133C0E114F10439F0F701808125
:104FB0009181081B190BC80FD91FC12CD12C0115C9
:104FC000110519F18091E80085FD16C08091E80077
:104FD0008E778093E800E114F10449F0F7018081B5
:104FE0009181C80ED91ED182C08285E00FC00E9477
:104FF0002229882321F30AC089918093F10001506E
:105000001109FFEFCF1ADF0ADACF80E0DF91CF91ED
:105010001F910F91FF90EF90DF90CF900895209116
:10502000F2053091F3052617370748F06115710531
:1050300039F42091E8002E772093E80001C0B901EF
:10504000FC0120E06115710579F18091EB05882361
:10505000F1F18530F1F18091E80083FD3CC0809151
:10506000E80082FD2EC08091E80080FFEBCF209108
:10507000F3008091F20090E0922B6115710551F0E0
:105080008830910538F421912093F1006150710925
:105090000196F3CF21E0089709F020E08091E80025
:1050A0008E778093E800CECF2111CFCF0AC08091B8
:1050B000EB05882361F0853061F08091E80083FD85
:1050C0000AC08091E80082FFF2CF80E0089582E07C
:1050D000089583E0089581E008952091F2053091CC
:1050E000F3052617370748F06115710539F420914B
:1050F000E8002E772093E80001C0B901FC0120E010
:105100006115710591F18091EB05882309F440C088
:10511000853009F43FC08091E80083FD3DC0809157
:10512000E80082FD2FC08091E80080FFE9CF209148
:10513000F3008091F20090E0922B6115710559F017
:105140008830910540F424912093F100319661500C
:1051500071090196F2CF21E0089709F020E08091D3
:10516000E8008E778093E800CBCF2111CCCF0AC026
:105170008091EB05882361F0853061F08091E80033
:1051800083FD0AC08091E80082FFF2CF80E008959D
:1051900082E0089583E0089581E00895982F973084
:1051A00068F59093E900981739F07091EC00209120
:1051B000ED005091F00003C0242F762F50E021FD28
:1051C00002C09F5FECCF3091EB003E7F3093EB004D
:1051D0003091ED003D7F3093ED003091EB00316078
:1051E0003093EB007093EC002093ED005093F000AF
:1051F0002091EE0027FDE5CF80E008958F70809329
:10520000E90081E008958091EC0587FF11C080914D
:10521000E80082FD05C08091EB058111F8CF11C037
:105220008091E8008B770BC08091EB05882349F0D3
:105230008091E80080FFF8CF8091E8008E7780931E
:10524000E80008952091E4003091E50095E6409152
:10525000EC00842F817040FF23C08091E80080FD26
:105260001DC08091EB05882399F0853099F08091DD
:10527000EB0085FD11C04091E4005091E50024173A
:10528000350729F3915011F09A01E1CF84E0089598
:1052900082E0089583E0089581E0089580E0089514
:1052A0004091E80042FFDDCF08950E94C3290E948B
:1052B000CB29E0EEF0E0808181608083E8EDF0E0D2
:1052C00080818F77808319BCA7EDB0E08C918E7FB1
:1052D0008C9380818F7E80831092EA0508950F93CE
:1052E0001F93CF93DF930E94C3290E94CB29C8ED5F
:1052F000D0E088818F7788838881806888838881DF
:105300008F7D888319BC1092EB051092E7051092EF
:10531000E9051092E80500EE10E0F80180818B7F2E
:10532000808388818160888342E060E080E00E9421
:10533000CE28E1EEF0E080818E7F8083E2EEF0E027
:10534000808181608083808188608083F801808192
:105350008E7F8083888180618883DF91CF911F91C8
:105360000F910895E8EDF0E080818F7E8083E7ED76
:10537000F0E080818160808384E082BF81E080935F
:10538000EA050C946F29E8EDF0E080818E7F808340
:105390001092E20008951092DA001092E100089550
:1053A0001F920F920FB60F9211242F933F934F939A
:1053B0005F936F937F938F939F93AF93BF93EF937D
:1053C000FF938091E10082FF0BC08091E20082FF99
:1053D00007C08091E1008B7F8093E1000E94462C02
:1053E0008091DA0080FF1FC08091D80080FF1BC031
:1053F0008091DA008E7F8093DA008091D90080FF5F
:105400000DC080E189BD82E189BD09B400FEFDCFF8
:1054100081E08093EB050E943B2605C019BC1092E9
:10542000EB050E9449268091E10080FF19C0809120
:10543000E20080FF15C08091E2008E7F8093E20041
:105440008091E20080618093E2008091D8008062C8
:105450008093D80019BC85E08093EB050E944D260F
:105460008091E10084FF30C08091E20084FF2CC075
:1054700080E189BD82E189BD09B400FEFDCF809144
:10548000D8008F7D8093D8008091E1008F7E80933B
:10549000E1008091E2008F7E8093E2008091E20043
:1054A00081608093E2008091E705882311F084E019
:1054B00007C08091E30087FD02C081E001C083E066
:1054C0008093EB050E944E268091E10083FF29C066
:1054D0008091E20083FF25C08091E100877F809367
:1054E000E10082E08093EB051092E7058091E100F6
:1054F0008E7F8093E1008091E2008E7F8093E200B6
:105500008091E20080618093E20042E060E080E010
:105510000E94CE288091F00088608093F0000E9465
:105520004C26FF91EF91BF91AF919F918F917F9109
:105530006F915F914F913F912F910F900FBE0F9000
:105540001F9018951F920F920FB60F9211242F9350
:105550003F934F935F936F937F938F939F93AF93FB
:10556000BF93CF93DF93EF93FF93C091E900CF7088
:105570008091EC00D82FD17080FDD0E81092E90026
:105580008091F000877F8093F00078940E94E62A53
:105590001092E9008091F00088608093F000CD2B9C
:1055A000CF70C093E900FF91EF91DF91CF91BF9150
:1055B000AF919F918F917F916F915F914F913F91AB
:1055C0002F910F900FBE0F901F9018951F93CF93A0
:1055D000DF93CDB7DEB7AA970FB6F894DEBF0FBE44
:1055E000CDBFECEEF5E08091F100819325E0E43F42
:1055F000F207C9F70E9455268091E80083FF2EC16B
:105600008091EC059091ED05492F50E04A3051050D
:1056100008F024C1FA01E858FF4F0C94822C80381E
:1056200021F0823809F01AC108C08091E8059091F4
:10563000E905992389F082600FC08091F0058F7091
:10564000873008F00BC18093E9008091EB0085FB67
:10565000882780F91092E9009091E800977F909355
:10566000E8008093F1001092F100D1C0282F2D7F27
:1056700009F0F4C0882319F0823061F0EFC0809106
:10568000EE05813009F0EAC0933009F080E08093A4
:10569000E9052EC08091EE0581112AC08091F005A8
:1056A0008F702FEF280F263008F0D8C08093E900C4
:1056B0002091EB0020FF1CC0933021F48091EB007F
:1056C000806214C09091EB0090619093EB0021E018
:1056D00030E0A90102C0440F551F8A95E2F74093BC
:1056E000EA001092EA008091EB0088608093EB0062
:1056F0001092E9008091E800877F8093E8000E9483
:105700000329ACC08111AAC01091EE051F778091CA
:10571000E3008078812B8093E3008091E800877F0D
:105720008093E8000E9403298091E80080FFFCCF6D
:105730008091E30080688093E300111102C082E051
:1057400001C083E08093EB0589C08058823008F067
:1057500085C08091EE059091EF058C3D53E0950753
:1057600079F583E08A838AE289834FB7F894DE0172
:10577000139620E03EE051E2E32FF0E05093570013
:10578000E49120FF03C0E295EF703F5FEF708E2F32
:1057900090E0EA3010F0C79601C0C0968D939D93BB
:1057A0002F5F243149F74FBF8091E800877F8093B6
:1057B000E8006AE270E0CE0101960E940F2816C050
:1057C0006091F0057091F105AE014F5F5F4F0E944F
:1057D0005127BC01892B09F441C09091E800977FC3
:1057E0009093E80089819A810E946D288091E80059
:1057F0008B778093E80032C0803881F58091E80093
:10580000877F8093E8008091E7058093F100809185
:10581000E8008E7772CF811121C08091EE059091C2
:10582000EF0599270297D4F48091E800877F809351
:10583000E8008091EE058093E7050E94032980919E
:10584000E705811106C08091E30087FD02C081E079
:1058500001C084E08093EB050E9450268091E8000F
:1058600083FF0AC08091E800877F8093E8008091E1
:10587000EB0080628093EB00AA960FB6F894DEBF2F
:105880000FBECDBFDF91CF911F9108950895CF93A3
:105890008091EB058823A1F0C091E900CF70909131
:1058A000EC00892F817090FD80E8C82B1092E900F0
:1058B0008091E80083FD0E94E62ACF70C093E90042
:1058C000CF910895991B79E004C0991F961708F0AD
:1058D000961B881F7A95C9F780950895AA1BBB1B54
:1058E00051E107C0AA1FBB1FA617B70710F0A61BE0
:1058F000B70B881F991F5A95A9F780959095BC0101
:10590000CD010895EE0FFF1F0590F491E02D09944D
:10591000FB01DC0102C005900D9241505040D8F7C8
:105920000895FB01DC0104C08D910190801921F4E0
:1059300041505040C8F7881B990B0895F999FECF44
:1059400092BD81BDF89A992780B50895A8E1B0E08D
:1059500042E050E00C94D22C262FF999FECF92BD54
:1059600081BDF89A019700B4021639F01FBA20BD24
:105970000FB6F894FA9AF99A0FBE08950396272F56
:105980000E94AD2C0E94AC2C252F0E94AD2C242F00
:105990000C94AD2C0196272F0E94AD2C0C94AC2CAE
:1059A000DC01CB01FC01F999FECF06C0F2BDE1BDDF
:1059B000F89A319600B40D9241505040B8F70895CE
:0459C000F894FFCF89
:1059C400010C000F005E007D010021007F22000316
:1059D40015030226072605263A2606260199000005
:1059E40000049904000004991000000499080000C0
:1059F4000466000000106604000010661000001029
:105A04006608000010FF03000008FF07000008FFFD
:105A140013000008FF0B00000880001320000C088E
:105A240000170400080100044000120200161000D0
:105A34001112000D21001D0C001505001B28001972
:105A440030000B41012F9000108400340900090339
:105A5400001AC0003322000E0600074200378201FC
:105A64003014001C11001450001824003688002A39
:105A740018000544002D60000F48000A0A00068142
:105A84000138F000280F002B0110E00210E104108F
:105A9400E20810E310105020105140105280104FB3
:105AA40000124B00114E81103A41103BC1103C21B1
:105AB400103DA1103E61103FE110401110419110C2
:105AC40042511043D1104431104512104A82104DF6
:105AD40022104942104C40042602041F10042420C2
