:100000000C941C0A0C94630A0C94630A0C94630A03
:100010000C94630A0C94630A0C94630A0C94630AAC
:100020000C94630A0C94630A0C940E230C94E02342
:100030000C94891E0C94630A0C94630A0C94630A52
:100040000C94630A0C94630A0C94630A0C94630A7C
:100050000C94630A0C94F11E0C94630A0C94630ACA
:100060000C94630A0C94630A0C94630A0C94630A5C
:100070000C94630A0C94630A0C94630A0C94630A4C
:100080000C94630A0C94630A0C94630A0C94630A3C
:100090000C94630A0C94630A0C94630A0C94630A2C
:1000A0000C94630A0C94630A0C94630A7A0D250E6F
:1000B000250E250E8E0D250E250E250EAC0D250EBA
:1000C000250ECA0D250EA20DB60DC00D250ED40DA0
:1000D000840D980D3E183E185018501847185018A7
:1000E000501850183E183E184C18501850184C18FC
:1000F0004D2474246C2574246C25C024E3246C25C1
:100100003A254925496E76616C69642053706563B0
:1001100069616C20696E204B65796D617000040027
:100120001600080017000F00150011000C00120047
:100130001300E002A611D002A21107029E110E02C6
:1001400099110D02941192029011A4028C110B02CC
:10015000861154028111A1027A111A027611190234
:1001600071114A026B11B0026611C40260118C0257
:100170005B1170025711430252114B024D11D40210
:100180004611E4023E111B023911C6022E111E0255
:100190002811B40223112D021D1159021611C30298
:1001A00010115502081165020211D102FD107402EE
:1001B000F7100F02F1106902EB102E02E410990201
:1001C000DF10E802D8104C02D3104C22CF101C02D2
:1001D000CB101C22C6106402C2106422BD10A20201
:1001E000B810A222B2106802AC106822A7109402C4
:1001F000A01094229C106102971061229310580263
:100200008E1058228910C8028410C8227F1025023F
:100210007910252275101502701015226B102A0214
:1002200066102A22611091025D109122581013026B
:10023000531013224E1049024910492245108302DF
:10024000401083223A108602341086223010260293
:100250002B10262225104602211046221C102902AE
:1002600017102922131023020E102322091038021E
:1002700004103822FF0F1602F90F1622F30F320274
:10028000ED0F3222E80F8902E30F8922DE0F5202BE
:10029000D80F5222D40FA802CF0FA822CA0F3402BF
:1002A000C60F3422C20F2C02BC0F2C22B70F6202E1
:1002B000AF0F6222A90F3102A50F3122A00FB902A0
:1002C0009A0F2F02930FAB028D0FC702840FCB0240
:1002D0007E0F5B02780FF802710F66026B0F6622C9
:1002E000650F27025F0F2722590FE102510FE1220C
:1002F0004C0F5602460F5622410F33023B0F33225A
:10030000360FD802310FD8222C0FB802270FB8228F
:10031000220F47021C0F4722160F9C020C0F9C2233
:10032000080F5A02030F5A22FD0E6A02F60E6A22C5
:10033000F00EA602E90EA622E30E3902DD0E3922E6
:10034000D80E6302D20E6322CD0E8D02C50E8D2211
:10035000BF0EAC02B90EAC22B30E5302AE0E532246
:10036000A90EE202A30EE2229D0E7202970E7222E5
:10037000910E17028C0E1722870E96027F0E962280
:100380007A0E6C02740E6C226E0EAA02680EAA22FD
:10039000620E3C025D0E3C22580E9302530E9322D5
:1003A0004D0EB202470EB222410E4E023B0E4E22BD
:1003B000340E1D022F0E1D22290ECA02230ECA2240
:1003C0001D0E3A02170E3A22110ECC02090ECC2253
:1003D000030E2B02FD0D2B22F60DD202F10DD222BF
:1003E000EB0DC902E60DC922DE0D4D02D90D4D22DD
:1003F000D20DB102CD0DB122C70D5C02C10D5C2240
:10040000BB0D7102B30D7122AD0D3502A60D352263
:10041000A00D8B029B0D8B22950D9502900D9522C0
:100420008A0D8E02840D8E227D0D8702770D872224
:100430006F0D7802660D7822600D36025B0D362254
:10044000550D7B024C0D7D02430D6B023D0D6B2261
:10045000370D3702310D37222C0D9B02260D9B22C2
:100460001F0DF102170DF122100D9E02090D9E22A3
:10047000040DDA02FC0CDA22F60CD302EF0CD322C4
:10048000E80CF202E20CF222D90CBA02D20CBA2227
:10049000CB0CEC02C50CEC22BE0C7602B60C76221C
:1004A000AF0C9702A90C9722A30C3B029D0C3B2298
:1004B000970C1F02910C1F228A0C5E02820C5E2296
:1004C0007C0C3D02740C3D226E0CE502670CE522AB
:1004D000610CEA025A0CEA22500CB602490CB62210
:1004E000430CD9023C0CD922350C7A022F0C7A220B
:1004F000260C79021F0C7922170CE602100CE6225A
:10050000060CA702FF0BA722F90B6E02F30B6E225B
:10051000EC0BF402E20BF422DC0BB502D30BB52298
:10052000CC0B7C02C30B7C22BC0BDC02B60BDC22A6
:10053000B00B5D02A80B5D22A10BB302980BB32296
:10054000920BCD02890BCD22830B6D027D0B6D22A8
:10055000770B7302720B73226D0B8F02660B8F2267
:100560005D0B6702570B6722510BD6024B0BD6224D
:10057000430BE3023D0BE322350BAE022C0BAE2204
:10058000260B9D02200B9D22180B5702120B57229F
:100590000B0B4F02040B4F22FB0ACE02F20ACE22B3
:1005A000E90A7502E20A7522DD0ABC02D70ABC22FA
:1005B000CE0A3E02C70A3E22BD0AAD02B50AAD22EE
:1005C000AC0AE902A60AE9229F0AB702980AB722F2
:1005D000920A5F02890A5F227D0AF502740AF522F7
:1005E0006E0AF602660AF6225E0AF302570AF32240
:1005F000500AE702490AE722410AFA02390AFA22B6
:10060000330AFC02270AFC221F0AED02180AED2217
:10061000110A9F020B0A9F22020AF902FC09F92221
:10062000EF093F02E8093F22E109DB02D909DB2299
:10063000D109CF02C609CF22BF097E02B8097E22A6
:10064000B009BE02A809BE22A1096F029B096F2250
:100650009409AF028D09AF228609DD028009DD22EF
:100660007709DE027009DE226809D7026109D72204
:100670005909EB025009EB224509BB023C09BB2298
:100680003509BD022D09BD222409EE021B09EE2207
:10069000130977020C0977220309EF02FA08EF2207
:1006A000F3087F02EA087F22E108FD02D908FD2253
:1006B000CE08FB02C608FB22BE08FE02B308FE22DB
:1006C000A908BF02A108BF229808DF028F08DF2215
:1006D0008808F7027D08F7227508FF026908FF22E3
:1006E000600801085008020840080408300808089B
:1006F000200810081008200800084008F0078008AB
:10070000E007000AD0070009C0070302AA07060293
:1007100094070C027E071802680730025207600235
:100720003C07C0022607556E646566696E656420E5
:10073000517569636B20466972652000556E64656A
:1007400066696E656420517569636B2046697265E0
:100750002000556E646566696E6564205175696335
:100760006B20466972652000556E646566696E652A
:100770006420517569636B20466972652000556E6F
:10078000646566696E656420517569636B204669AE
:1007900072652000556E646566696E6564205175EA
:1007A00069636B20466972652000556E64656669F1
:1007B0006E656420517569636B204669726520001F
:1007C000756E646566696E65642055736572200098
:1007D000756E646566696E65642055736572200088
:1007E000756E646566696E65642055736572200078
:1007F000756E646566696E65642055736572200068
:10080000756E646566696E65642055736572200057
:10081000756E646566696E65642055736572200047
:10082000756E646566696E65642055736572200037
:10083000756E646566696E65642055736572200027
:10084000756E646566696E65642055736572200017
:10085000756E646566696E65642055736572200007
:1008600068696D73656C66200065737065636961A6
:100870006C6C792000706C6179656420006578701B
:100880006C61696E656420006D616A6F722000633F
:100890006F6D70616E792000706572686170732091
:1008A000007468617427732000706F737369626CE1
:1008B000652000736F6D657468696E6720006D61F7
:1008C0006B696E672000616C6D6F73742000696DD9
:1008D000706F7274616E74200066616D696C79204E
:1008E00000686F77657665722000616C726561647F
:1008F000792000706C6163652000737065636961C5
:100900006C2000757375616C6C792000776F756C65
:10091000642000706F6C69636520007265706C699B
:1009200065642000686176656E2774200072656DCD
:1009300061696E20006D617463682000636170748A
:1009400061696E2000706F6C69746963616C20006E
:100950006361706974616C200070617573656420F7
:1009600000776F6D656E2000706572736F6E20008A
:10097000646F6E2774200070726F6772616D200063
:1009800066726F6D20007061726973200077652751
:10099000766520006C656173742000776F726B2040
:1009A0000069736E277420006469646E27742000E8
:1009B0006F74686572732000636F756C64200070DB
:1009C0006F7765722000636F72706F72617465205B
:1009D000006D6F73636F77200066616D6F757320B4
:1009E000006865617264200077686572652000693F
:1009F0006D6167696E6174696F6E200066696C6D08
:100A00002000706172656E7473200063616D6520F3
:100A100000706C6174652000617072696C20006DFB
:100A20006F746865722000676F7665726E6D656EB3
:100A30007420006D7563682000636F6D696E6720B8
:100A400000706C6561736520007765276C6C200011
:100A5000706C616E732000736D616C6C200070753A
:100A60006C6C6564200073696D706C792000706C2B
:100A7000617920006578616D706C652000756E6429
:100A800065727374616E642000626563617573657D
:100A900020006D616B6520007368616D65200070DA
:100AA0006C61746F2000666C6970200070726976EA
:100AB00061746520007265706169722000696E74EE
:100AC00065726573742000746865736520007072C8
:100AD0006576656E7420007468656D20006C6179C0
:100AE0002000616C6F6E65200070726F63657373B8
:100AF000200073746F7070656420006F66666572A5
:100B000065642000776F72647320006F776E656490
:100B10002000646F776E20006D6174746572200030
:100B200061726D79200069742773200064657370A9
:100B3000697465200070696C6C6F772000736C615C
:100B40007020006F70656E65642000736F6D6520A6
:100B5000006C656164200077656C6C2000706572C4
:100B600066656374200077652772652000686F777B
:100B7000200077686F20006C696665200066656CF0
:100B8000742000706167652000726170706F72740C
:100B900020006D61736B20007370616E6973682053
:100BA000006F6674656E20006265666F7265200076
:100BB0006D6F72652000726F6F6D20006F746865D5
:100BC0007220007468726F756768200068617070C9
:100BD0007920006578616D696E652000686F6D65CC
:100BE0002000656D706C6F79656520006C697665B5
:100BF000732000746F6C642000706169642000735E
:100C00007065616B200070656F706C6527732000E4
:100C100073706F6B652000686176696E6720006194
:100C20006761696E20006C6F6F6B696E672000737F
:100C300075636820006F62616D612000616D6F6E89
:100C40006720006D696E642000736865276420006A
:100C5000706F6C6974696373200073706C697420C1
:100C60000070616C6520006170706C6520006861C7
:100C70007665200066617468657220006F6E63653A
:100C80002000636F7572736520007965617273204F
:100C90000077656E7420006A61636B200077697469
:100CA0006820006D616465200073616D65200068D7
:100CB0006F757365200073686F756C6420007072C7
:100CC0006F766520006772697020007069746368D0
:100CD0002000736D69746820006D697373696F6EAD
:100CE000200073686F7020006D61736F6E20007755
:100CF0006F6D616E20006D6F73742000636F6D6D9A
:100D00006F6E20006D727320007370656E7420002A
:100D100068756D616E2000616E696D616C20007098
:100D2000616E7473200063616D70200068616420DF
:100D3000007768656E20006C617374200063616CDD
:100D40006C2000616E6F746865722000776974684A
:100D50006F757420006B696E6420007368652000F5
:100D6000696E746F200074686F7567687420007016
:100D70006173736564200077652764200070726575
:100D8000737320007374657020006D616E792000AC
:100D9000616E272000706173742000636170200011
:100DA000796561682000616E6E6965200068616C1C
:100DB0006C2000616E6E75616C2000796F75722019
:100DC000007475726E20007061696E200061696D3B
:100DD00020006F666665722000666F722000706F7B
:100DE0007461746F200067617020006A756D7020F7
:100DF0000073756D2000697361616320007761691C
:100E0000742000706F6F7220007265706F727420B2
:100E1000006E69636B2000746869732000706F73E3
:100E200074200073746F7020006E657874200072F7
:100E3000616E20006F726465722000676F6F6420BE
:100E4000006D69737320007368697020006D6173B1
:100E500073200073616D20006865722000746865FE
:100E600020007069636B20007469707320006F76D6
:100E70006572200074656C6C20006A656D200073DB
:100E800065656D656420006E65772000616E642085
:100E9000006A6F686E2000736F756C20006C69705B
:100EA000732000736C697020006E6F772000776F7D
:100EB0006E200069277665200074726970200070CA
:100EC000617274200061707065617220006C6F77D0
:100ED000200077696C6C2000686174200074686180
:100EE0007420006B65657020007370696573200065
:100EF0006C6F737420007374696C6C20006A757376
:100F000074200063757420006D72200072656D6539
:100F10006D62657220006F7765642000776F6F6483
:100F2000200069626D200074696D20007075742066
:100F300000746F6D2000686173200077697368200A
:100F4000007573652000646F6E6520006C61702011
:100F50000061706F6C6C6F200069646561200073C4
:100F600061696420006C696B652000656C736520A5
:100F7000006D696768742000746F776E2000676188
:100F8000707320006578706F736564200070616312
:100F90006B200066697273742000706174682000B1
:100FA00068616E2000616820006C6F6F6B200073B9
:100FB0006B696C6C732000697665200065766572DC
:100FC0002000686520006568200070697420007446
:100FD0006970200075732000736F6F6E2000706160
:100FE00074200074617020006869732000736B695D
:100FF0006E20006E65656420006579657320006869
:101000006974200062697420006B61612000617363
:101010006B20006966200066697420006F6464209C
:1010200000646F20006B69647320006469642000B1
:101030002773200064656570200070617373200061
:1010400073617020006F66200061676F20006A6125
:1010500077200073616E20006D616E2000616D204D
:1010600000697473200073697420006E6179200038
:10107000616E7920006978200078696969200070C4
:101080006F742000746F7020006E6F7420006275A2
:101090007420006C612000616C6C20006D79200070
:1010A000656E656D7920006C6F74200074696C6CDE
:1010B000200070697373200073697020006C69658B
:1010C0002000656C20007965742000626520006F47
:1010D000722000676574200070696C6F7420006D69
:1010E000626120007472696564200066616C6C2026
:1010F000007765726520006F6E6C7920006D616FFE
:101100002000616C65782000616E796F6E6520004B
:10111000736F6170200061626F757420006669767C
:1011200065200069276D2000626573742000706F70
:1011300073736573736564200063616E200070656E
:101140006F706C6520006D6F6E6579200074776F2D
:101150002000776F7720006F682000706572200094
:10116000706F7065200068696D2000636F73742074
:101170000066616E20006263200070697A7A6120E7
:1011800000796F7520006661637420002769200074
:101190006D732000617265200073657420007765AF
:1011A000200075702000706F6F6C200041001212DB
:1011B00084010F1282000C12A0000912A001061275
:1011C00081000312810400126004FD11A004FA11D1
:1011D000A005F7110904F4118204F1114104EE1184
:1011E0000604EB119004E811E13000E12000E12653
:1011F00000E12700E12F00E11F00E11E00E12000D7
:10120000E13800E13800E13400E11E00E12700E1AF
:101210001F00E1260000000000000000002A2B282B
:1012200000000000000000000000000000000000BE
:1012300029000000002C1E342021222434262725DA
:101240002E362D3738271E1F202122232425263312
:1012500033362E37381F0405060708090A0B0C0D14
:101260000E0F101112131415161718191A1B1C1D26
:101270002F3130232D350405060708090A0B0C0D04
:101280000E0F101112131415161718191A1B1C1D06
:101290002F3130354C00000000000000000000003D
:1012A000000000000000000000000000000000003E
:1012B000000000000000000000000000000000002E
:1012C000000000000000000000000000000000001E
:1012D000000000000000000000000000000000000E
:1012E00000000000000000000000000000000000FE
:1012F00000000000000000000000000000000000EE
:1013000000000000000000000000000000000000DD
:1013100000000000000000000000000000000000CD
:1013200000000000000000000000000000000000BD
:1013300000000000000001010101010100010101A4
:10134000010000000000000000000000000000019B
:10135000000100010101010101010101010101017F
:10136000010101010101010101010101010101016D
:10137000000000010100000000000000000000006B
:10138000000000000000000000000000000000005D
:1013900001010101000403300000000A034E00694E
:1013A000006F0070000000160344006100760069C1
:1013B000006400200042006100720072000000041E
:1013C00003090409022200010100A0FA0904000037
:1013D000010301010009211101000122400007055C
:1013E000810308000A12011001000000080ECB3032
:1013F0001100010102030105010906A101050719F8
:10140000E029E71500250195087501810295017510
:101410000881010507190029FF150026FF00950620
:1014200075088100050819012905950575019102C6
:10143000950175039101C00011241FBECFEFDAE0C2
:10144000DEBFCDBF04B603FE27C08091AF039091ED
:10145000B003A091B103B091B2038730904BA74085
:10146000B04BD1F41092AF031092B0031092B103BD
:101470001092B20314BE84B7877F84BF0FB6F8946E
:10148000A895809160008861809360001092600050
:101490000FBEE0E0F8E3099512E0A0E0B1E0E6EE6F
:1014A000FBE402C005900D92A437B107D9F723E001
:1014B000A4E7B2E001C01D92AF3AB207E1F70E9483
:1014C00050200C94F1250C94000090937E028093A0
:1014D0007D02809182029091830290937A028093A0
:1014E0007902EEEEF2E0A5E3B3E0819191918D9364
:1014F0009D9383E0EE32F807C1F7089580917D0255
:1015000090917E029093850280938402809179026B
:1015100090917A029093830280938202E5E3F3E054
:10152000AEEEB2E0819191918D939D9383E0E5378A
:10153000F807C1F7089590910001923069F49091F5
:101540007802943158F4E92FF0E0E258FC4F8083A0
:101550009F5F9093780208950C94091608958091E6
:101560000001813011F480937F02089520917B0265
:1015700030917C028227932790937C0280937B0298
:1015800008958F929F92AF92BF92DF92EF92FF9257
:101590000F931F93CF93DF93CDB7DEB728970FB686
:1015A000F894DEBF0FBECDBF8C01611103C0609106
:1015B000760202C061E070E0862F8170D82E22E5AD
:1015C00031E0409105015091060180E090E08417E0
:1015D0009507C9F02D5F3F4FF9013397E080F18007
:1015E000E016F10671F4D110F5C0FC01EE0FFF1FFB
:1015F0008E0F9F1FFC01EE5AFE4F82810E949B0AB4
:10160000EAC00196E4CF52E3A52E51E0B52EE12CBD
:10161000F12C8091070190910801E816F90620F558
:1016200044E050E0B501CE0101960E94A62594E069
:10163000A90EB11C89819A810817190789F4D11064
:10164000C9C00E945A1C827141F00E945A1C8D7EB2
:101650000E946A1C82E00E94981C8B819C8192C02F
:10166000EFEFEE1AFE0AD5CF4CEAA42E41E1B42EDC
:10167000E12CF12C4E01F5E08F0E911C80910301BD
:1016800090910401E816F90688F544E050E0B501B0
:10169000C4010E94A62584E0A80EB11C8D819E8104
:1016A00008171907F9F4D11095C06F81788544E0C7
:1016B00050E0CE0101960E94A62534E0A32EB12C65
:1016C000CE0101967C01F70181917F01882329F0E9
:1016D0000E949B0A8E149F04B1F791E0A91AB108E9
:1016E00079F778C09FEFE91AF90AC8CF22E531E00F
:1016F000409186025091870280E090E08417950720
:10170000C9F02C5F3F4FF901349760817181061752
:10171000170771F4D1105EC0880F991F880F991FA9
:10172000FC01EE5AFE4F0280F381E02D099552C074
:101730000196E4CF26E131E0409101015091020190
:1017400080E090E001C001968417950731F12B5F8E
:101750003F4FF9013597608171810617170799F797
:10176000D11038C025E0289FF001299FF00D1124E9
:10177000EA5EFE4F8281813069F038F0843050F1AA
:1017800084E091E00E94F80E25C0838194810E943C
:10179000B60A20C00E94AF0A1DC07801E894F0F894
:1017A000E114F10419F4E12CF12C15C00E151F05FC
:1017B000D1F361E0C7010E94C10AE816F90699F762
:1017C0006D2DC801882791700E94C10A6D2DC70137
:1017D0000E94C10A7801C70128960FB6F894DEBFAF
:1017E0000FBECDBFDF91CF911F910F91FF90EF9072
:1017F000DF90BF90AF909F908F9008950C94F81C4D
:1018000081E090E008952F923F924F925F926F9205
:101810007F928F929F92AF92BF92CF92DF92EF9280
:10182000FF920F931F93CF93DF93CDB7DEB7E2976D
:101830000FB6F894DEBF0FBECDBF009184021091A9
:10184000850220917B0230917C022115310581F4C3
:1018500061E080918402909185020E94C10A2091EA
:1018600084023091850282179307E1F460E030C072
:10187000C801822B932B9093850280938402609100
:10188000820270918302EEEEF2E080E090E0681751
:101890007907F4F240815181422B532B41935193AC
:1018A0000196F5CFC9010E94640E7C01892BC9F114
:1018B0008091840290918502E816F90691F161E029
:1018C000C7010E94C10AE816F90659F560E0C70190
:1018D0000E94C10A80917F02882329F00E947E0A1B
:1018E00010927F02AACF8091840290918502E296A5
:1018F0000FB6F894DEBF0FBECDBFDF91CF911F9121
:101900000F91FF90EF90DF90CF90BF90AF909F909E
:101910008F907F906F905F904F903F902F900C949E
:10192000650AFE0131963F012F01C12CD12CE12C1B
:10193000F12CC016D106C1F18EEE92E09AAB89ABC4
:10194000812C912CA12CB12C1601209430948091E3
:1019500082029091830288159905C4F0E9A9FAA939
:1019600081919191FAABE9AB822193219093850209
:1019700080938402009731F061E00E94C10A0097D1
:1019800009F05C01FFEF8F1A9F0AE1CFCA28DB281C
:10199000F201A192B1922F01FFEFEF1AFF0A88E145
:1019A000E816F10431F61FC0C12CD12CEC14FD0453
:1019B00079F0F301819191913F0190938502809399
:1019C000840260E00E94C10AFFEFCF1ADF0AEECF67
:1019D00080917F02811103C0C8010E94650A1093A3
:1019E000850200938402E2960FB6F894DEBF0FBE24
:1019F000CDBFDF91CF911F910F91FF90EF90DF90BE
:101A0000CF90BF90AF909F908F907F906F905F909E
:101A10004F903F902F900895CF93DF938091840251
:101A200090918502CC9709F580910001823041F0B8
:101A3000109278028093970382E08093000115C092
:101A40008091970380930001CEE7D3E080917802E4
:101A500090E09E012E5733402817390724F48991CE
:101A60000E940916F3CF0E942C180E94030C80914B
:101A7000800290918102909385028093840210925B
:101A8000770210928302109282020E942C18109208
:101A90007602EEEEF2E08FEF9FEF8193919323E0D9
:101AA000EE32F207D1F7DF91CF910895EF92FF92D6
:101AB0000F931F93CF938C017B01AB01BC018091ED
:101AC0008402909185020E94000C892B09F4BDC00C
:101AD0000E94BB1E9093750280937402F701C2812D
:101AE000F8013497E431F10508F0AFC0EA5AFF4F2E
:101AF0000C94A0258091800290918102CC2311F05A
:101B000081605BC08E7F59C080918002909181027C
:101B1000CC2311F0826051C08D7F4FC08091800234
:101B200090918102CC2311F0846047C08B7F45C027
:101B30008091800290918102CC2311F088603DC099
:101B4000877F3BC08091800290918102CC2311F06D
:101B5000806133C08F7E31C080918002909181027C
:101B6000CC2311F0806229C08F7D27C08091800234
:101B700090918102CC2311F080641FC08F7B1DC027
:101B80008091800290918102CC2311F0806815C071
:101B90008F7713C08091800290918102CC2311F045
:101BA00091600BC09E7F09C080918002909181025C
:101BB000CC2311F0926001C09D7F909381028093AD
:101BC00080028091770220918002309181028823E7
:101BD00049F0C11107C0C9019E7F892B19F40E94E9
:101BE0000C0D35C02115310511F4CC23C1F38091C2
:101BF000840290918502822B932B9093850280938F
:101C00008402A701B8010E944C0E90938502809334
:101C10008402AC015E7F21E0452B09F420E0209393
:101C20007702CC23A1F02091820230918302F90146
:101C3000EE0FFF1FE251FD4F918380832F5F3F4FD7
:101C4000309383022093820202C081E001C080E0D1
:101C5000CF911F910F91FF90EF900895CF93C09176
:101C60000001C130B9F480917702882399F0809106
:101C7000760281110FC080917402909175020E94CA
:101C8000C71E8F3E924030F00E94030C0E94AB1C96
:101C9000C0937602CF910895CF93DF93EC01FA01C0
:101CA0008281811102C0CE010CC0CE010E94FE0BC8
:101CB0008130C9F7CE01807F9927892BA1F3CE010E
:101CC0009062DF91CF9108959C012227307295FF99
:101CD00003C09C0140E23427C901089581E00895C2
:101CE000CF93DF9300D000D01F92CDB7DEB74983EA
:101CF0005A8389819A810E94361C69817A810F906A
:101D00000F900F900F900F90DF91CF910C94920F46
:101D1000FC01408151816281738184810C94700E39
:101D20001F93CF93DF9390E0FC01EB5EFD4E149187
:101D3000FC01EB5EFC4ED491FC01EB56FD4EC491D0
:101D4000DD2319F081EE0E940916CC2319F086EEEE
:101D50000E940916812F0E94F816CC2319F086EEF6
:101D60000E94CC16DD2331F081EEDF91CF911F91DF
:101D70000C94CC16DF91CF911F9108950F931F9370
:101D8000CF93DF93EC01062FFE018491882359F154
:101D90009E012F5F3F4F813041F4E901F901149119
:101DA000812F0E940916812F0DC0823031F4E90184
:101DB000F90184910E9409160AC0833031F4E901C7
:101DC000F90184910E94CC1602C00E94900E2196C7
:101DD000802F8823C9F2EFE9FFE03197F1F700C0C7
:101DE00000008150F6CFDF91CF911F910F910895A0
:101DF00060E00C94BE0E0E94521D811102C00E9430
:101E0000F21D0C9447120C94431208950C94050F84
:101E100081E008950C94080FCF93C82F0E94060FFD
:101E20008C2F0E940A0FCF91089508950E942C18BC
:101E30000E94150F2FEF84E39CE0215080409040DA
:101E4000E1F700C0000087E797E7909301088093CF
:101E500000080C94171F0F931F93CF93DF93EC018F
:101E60000E94880E8C01BE010E94560D882309F441
:101E70004FC0BE01C8010E947213882309F448C0F4
:101E8000BE01C8010E94B313882309F441C08A81AE
:101E9000882371F001158CE5180739F00E3D8CE5AB
:101EA000180731F40E94F21D33C00E94160F30C093
:101EB00006311C4531F50E945A1C982F8A812091C9
:101EC000090130910A01882379F09A7A81E009F4B6
:101ED00080E080938802911102C069E201C065E34D
:101EE000C9010E942C1E0AC080918802811102C083
:101EF00069E201C065E3C9010E942E1E0E94AB1C6D
:101F000007C0CE01DF91CF911F910F910C946E0EFF
:101F100080E0DF91CF911F910F91089580E090E0D4
:101F200008950895272F30E0280F311D8AE0829F01
:101F3000F001839FF00D1124E60FF11DEE0FFF1F3E
:101F4000E25EFE4F859194910895880F991FFC01E0
:101F5000EB56FC4E859194910895CF93DF930E94A8
:101F6000920F0E946111EC0181159045C8F5C115D1
:101F700080E4D80708F023C1C03ED105D8F4C03CA6
:101F8000D10508F00BC1C83AD10578F4C53AD1059E
:101F900008F09AC0C130D10509F48FC108F440C1DE
:101FA000C430D10508F089C13BC1CF3BD10508F44D
:101FB00096C036C1C11590E2D90750F4C11521E091
:101FC000D20708F07AC1C83ED10508F476C128C10D
:101FD000C11580E3D80708F0E8C0CE019F70E1C0CA
:101FE000C11595E5D90708F043C0C11524E5D2070E
:101FF00008F0FCC0C11582E5D80708F5C11591E5C8
:10200000D90708F0DFC0CE0174E0969587957A95E0
:10201000E1F783709C2F937021E030E002C0220F23
:10202000331F9A95E2F73C68382BCF70C695C6955A
:1020300080E2C89FE0011124C22BD32B3EC19E0138
:10204000237033278C2F86958695C115D34508F0CC
:10205000BEC0C1E0D0E002C0CC0FDD1F2A95E2F780
:1020600020E2829FC0011124C82BD92BDC6825C136
:10207000C11529E5D207A0F4C11588E5D80708F0F5
:10208000BAC0C11596E5D90708F0CAC08C2F0E94C6
:10209000F5118F71C82FD0E0DC2FCC27D0620DC195
:1020A000C1152AE5D20708F4ABC0CE0190568115C0
:1020B000904208F0B5C08D2F8F710E94F511DD2779
:1020C000D0628F71D82BF9C0C53AD10509F4ABC0E5
:1020D000C63AD10509F0AAC0C2E8D0E4EEC0C83AB9
:1020E000D10509F4A6C0C93AD10509F4A5C0CA3A78
:1020F000D10509F4A4C0CB3AD10509F4A3C0CC3A68
:10210000D10509F4A2C0CB3BD10509F4A1C0CC3B59
:10211000D10509F4A0C0CD3AD10509F49FC0C03B58
:10212000D10509F49EC0CE3AD10509F49DC0CF3A3D
:10213000D10509F49CC0C13BD10509F49BC0C23B49
:10214000D10509F49AC0C33BD10509F499C0C43B39
:10215000D10509F498C0C53BD10509F497C0C63B29
:10216000D10509F496C0C73BD10509F495C0C83B19
:10217000D10509F494C0C93BD10509F493C0CD3B06
:10218000D10509F492C0CE3BD10509F491C0CA3BF8
:10219000D10509F490C0C0E0D4E48FC0CE01805CCA
:1021A00091090E94A50FEC0188C0CE019927D3FFA9
:1021B00003C0EC01D86C81C0EC01D06C7EC0DF7034
:1021C000D06A7BC0DC2FCC27C16FD06A76C0C1E05B
:1021D000D0E002C0CC0FDD1F2A95E2F720E2829FFB
:1021E000C0011124C82BD92BDA6867C0DC2FCC279B
:1021F000C46FD06A62C0DC2FCC27C06FD06A5DC0CC
:102200008C2F8F700E94F51194E0D695C7959A9502
:10221000E1F7CF70D0E0DC2FCC27D069C82B4DC0C0
:10222000C0E0D0E04AC0C1E8D0E447C0C3E8D0E491
:1022300044C0C2EED4E441C0C9EED4E43EC0CAEE0C
:10224000D4E43BC0C5EBD4E438C0C6EBD4E435C01D
:10225000C3EBD4E432C0C4EBD4E42FC0C7EBD4E466
:102260002CC0CCECD4E429C0CDECD4E426C0C3E827
:10227000D5E423C0CAE8D5E420C0C2E9D5E41DC036
:10228000C4E9D5E41AC0C1E2D6E417C0C3E2D6E47B
:1022900014C0C4E2D6E411C0C5E2D6E40EC0C6E262
:1022A000D6E40BC0C7E2D6E408C0CFE6D4E405C04C
:1022B000C0E7D4E402C0CAE2D6E4CE01DF91CF91F8
:1022C00008958238910569F1B0F48133910509F4DC
:1022D0006DC048F48932910509F463C08A329105D2
:1022E00009F469C008958533910509F455C089330F
:1022F0009105B9F00895833E910569F138F4803E67
:102300009105B1F0823E910509F10895863E91054F
:10231000A9F1873E9105B9F1843E910509F064C0A9
:1023200023C02091A00320FD4FC021FD4DC0089582
:102330008091A00380FD44C08091A10380FF44C030
:102340008091A00384FD42C083EE4DC08091A00324
:1023500082FF38C0F5CF8091A00382FD33C0809109
:10236000A10380FD31C0ECCF8091A10381FF32C079
:102370008091A00384FD2AC087EE35C08091A00320
:1023800083FF26C0F5CF8091A00383FD21C08091FB
:10239000A10381FD1FC0ECCF8091A00385FD1CC06F
:1023A0001DC08091A00385FD19C016C08091A003B7
:1023B00086FD16C017C08091A00386FD13C010C013
:1023C00089E311C082EE0FC080EE0DC080E00BC02B
:1023D00086EE09C084EE07C089E205C085E303C02C
:1023E0008AE201C081E390E008959091A00392FFFA
:1023F0000DC0282F2871283019F4877F846006C00B
:10240000282F2471243011F48B7F886093FF0DC036
:10241000282F2871283119F4877E846106C0282F5F
:102420002471243111F48B7E88612091A10320FF57
:102430000DC0382F3871383019F4877F816006C09D
:10244000382F3171313011F48E7F886021FF0DC03B
:10245000282F2871283119F4877E816106C0282F22
:102460002171213111F48E7E886194FD877E08955B
:10247000E82FF0E0EE0FFF1FE656FC4F80819181C0
:102480000895089508950C942E0E0C9442120C9405
:102490004512CF93DF93A9E6B2E043E752E061E053
:1024A00070E08D91E82FE295EF70F0E021A18F7040
:1024B000EB0102C0CC0FDD1F8A95E2F7CE019C2F05
:1024C0009095922391A392A1892B82A34A175B072F
:1024D00041F7109299031092980310929B03109267
:1024E0009A0381E00E94C312DF91CF910C94FB0EFE
:1024F000CF93DF93609198037091990310929903A1
:1025000010929803E9E6F2E020E030E0A1E0B0E0CC
:102510004191C42FC295CF70D0E088A190E04F7058
:1025200002C0959587954A95E2F780FD08C0AD01F8
:10253000022E02C0440F551F0A94E2F702C040E089
:1025400050E08091980390919903842B952B909360
:102550009903809398032F5F3F4F2A303105C1F6CE
:10256000C1E06817790709F4C0E02C2F41E06AE95F
:1025700073E088E993E00E94C4120E94030F8C2F3D
:10258000DF91CF9108950895FF920F931F93CF93FA
:10259000DF93F82E092F162FD72FC42F222349F0AF
:1025A00081E080938B020E94BB1E90938A028093ED
:1025B000890280918B028823D9F0809189029091C1
:1025C0008A020E94C71E069798F0EF2DF02FA12FC8
:1025D000BD2F80E090E04C2F50E08417950734F435
:1025E000219131912D933D930196F7CF10928B025B
:1025F000DF91CF911F910F91FF9008950F931F933B
:10260000CF93DF93C62FD42F122FFC018281882312
:10261000C9F060938E020E94BB1E90938D0280933E
:102620008C0280E28C0F883008F057C0C77081E0C0
:1026300001C0880FCA95EAF7DF91CF911F910F91E2
:102640000C940B1780918E02681330C080918C021D
:1026500090918D020E94C71E883C910538F500E2DA
:102660000D0FCD17B9F080E28C0F883040F4C770A1
:1026700081E001C0880FCA95EAF70E94121708305E
:1026800028F581E09D2F977001C0880F9A95EAF791
:102690000E940B17812F0E94F8160830F0F4D770B3
:1026A00081E001C0880FDA95EAF70AC080E28C0F5A
:1026B000883098F4C77081E001C0880FCA95EAF7A6
:1026C000DF91CF911F910F910C941217812FDF9101
:1026D000CF911F910F910C94F816DF91CF911F911C
:1026E0000F9108959C01CB01233F4CE53407F9F08D
:1026F00078F4283DFCE53F07B9F0293D4CE5340767
:1027000011F1273D3C4531F526E241EE61EE1EC058
:10271000253FFCE53F0799F070F0263F3C45D1F49A
:1027200027E245EE66EE12C027E245EE0EC026E235
:1027300041EE60EE0BC027E245EE64EE07C026E2F4
:1027400041EE62EE03C028E241E065EE0E94FE1217
:1027500080E00895FC018281882319F010928E0296
:10276000089581E00895CF93DF93EC01FB0182810E
:10277000882309F41FC1C230FCE5DF0708F41BC140
:10278000C6319CE5D90738F09E012A5F3C452930C7
:10279000310508F010C10E94651D9093A10380933C
:1027A000A003C031ECE5DE0709F4C3C008F041C066
:1027B000C8308CE5D80709F49AC0F0F4C430ECE5D1
:1027C000DE0709F487C068F4C2308CE5D80709F445
:1027D00077C0C330DC4509F0E3C08091A00382607C
:1027E00076C0C630ECE5DE0709F46EC008F07BC0A9
:1027F0008091A00388606BC0CC308CE5D80709F4C9
:1028000085C068F4CA30ECE5DE0709F474C008F04E
:1028100079C00E942C188091A003806858C0CE30E7
:102820008CE5D80709F476C008F07FC08091A0033A
:102830008BC0CB3FECE5DE0709F44FC018F5C33180
:102840008CE5D80709F47DC078F4C131ECE5DE07EA
:1028500009F473C0C231DC4509F0A2C00E942C18F3
:102860008091A0038F7733C0C5318CE5D80709F478
:1028700072C008F486C0CA3FDC4509F091C080915F
:10288000A1033EC0CF3FFCE5DF0709F45FC058F469
:10289000CD3F9CE5D90709F444C008F43FC08091BE
:1028A000A10382602DC0C130FDE5DF0709F475C0CA
:1028B00008F45DC0C230DD4509F072C080E06EC032
:1028C0008091A003816003C08091A0038061809308
:1028D000A00366C08091A00311C08091A103826013
:1028E0008093A1035DC08091A0038062F0CF8091AE
:1028F000A0038064ECCF8091A00388608460E7CF60
:102900008160EECF8091A0038E7FE1CF8091A00304
:102910008D7FDDCF8091A003877FD9CF8091A103E8
:1029200018C08091A1038D7FDBCF8091A0038F7EA3
:10293000CECF8091A0038F7DCACF8091A0038F7BE3
:10294000C6CF8091A003877F8B7FC1CF8091A103E9
:102950008D7F8E7FC5CF8091A00382FB222720F937
:1029600091E0922790FB82F990FB83F9B0CF8091A0
:10297000A103982F909591708E7F892B90FB81F900
:10298000AFCF0E942C188091A00387FB222720F94B
:1029900091E0922790FB87F99ACF81E00E94F41D85
:1029A0008091A0039091A1030E94761D0E942C1893
:1029B00080E001C081E0DF91CF910895909394026F
:1029C000809393020895E0919302F09194023097DE
:1029D00021F00190F081E02D099480E00895E091CC
:1029E0009302F0919402309721F00280F381E02D60
:1029F0000994089520919102309192022817390785
:102A000071F09093920280939102E0919302F09181
:102A10009402309721F00680F781E02D0994089503
:102A200020918F02309190022817390771F090930E
:102A3000900280938F02E0919302F091940230977C
:102A400021F00084F185E02D0994089585B7806810
:102A500085BF85B7806885BF089508950C942D15AE
:102A60000C942E150C942D150C942D150E942615E2
:102A70000E9432150C94301581E008950E94B21E18
:102A80000E9449120E94281F0C943415CF92DF92A5
:102A9000EF92FF920F931F93CF93DF93CDB7DEB7E3
:102AA0002A970FB6F894DEBF0FBECDBF0E947812F2
:102AB0000E943C15882309F43FC080E00E94381230
:102AC0007C01C0909602D0909702C826D926C114E6
:102AD000D10491F18091E10281FD0E94411280E0D8
:102AE00001E010E0960120233123232B01F18E8396
:102AF0001F82E022F12281E0EF2809F480E088873C
:102B00000E94BB1E8160782F9A8789874E815F81E2
:102B100068858A850E94D5158091960290919702CA
:102B200008271927109397020093960215C08F5F0C
:102B3000000F111F8A30B1F68FEF89838A831B82C1
:102B40000E94BB1E8160782F9D838C8349815A81AE
:102B50006B818D810E94D5150E94E314909195029E
:102B60008917A1F00E94E314809395022A960FB66C
:102B7000F894DEBF0FBECDBFDF91CF911F910F91B3
:102B8000FF90EF90DF90CF900C940C0F2A960FB629
:102B9000F894DEBF0FBECDBFDF91CF911F910F9193
:102BA000FF90EF90DF90CF900895CF93DF93CDB754
:102BB000DEB72B970FB6F894DEBF0FBECDBF4F83A5
:102BC000588769877A878B87DE01119686E0FD0139
:102BD00011928A95E9F785E0FE01379601900D92F2
:102BE0008A95E1F749815A816B817C818D819E8133
:102BF0000E94FC1A2B960FB6F894DEBF0FBECDBF15
:102C0000DF91CF910895FC01808191810E94401C49
:102C10000895882309F4BFC0682F8CEF860F813A8E
:102C200038F48091090190910A010E942C1E0CC079
:102C300080E2860F883050F4677081E001C0880F11
:102C40006A95EAF70E945D1C0C94AB1C8BE5860F1D
:102C5000833070F4653A29F0663A31F083E890E009
:102C600005C081E890E002C082E890E00C94FA147C
:102C700088E5860F873108F08EC0683A09F445C0B0
:102C8000693A09F445C06A3A09F445C06B3A09F457
:102C900045C06C3A09F445C06B3B09F445C06C3B38
:102CA00009F445C06D3A09F445C0603B09F445C0DC
:102CB0006E3A09F445C06F3A09F445C0613B09F426
:102CC00045C0623B09F445C0633B09F445C0643B21
:102CD00009F445C0653B09F445C0663B09F445C0AD
:102CE000673B09F445C0683B09F445C0693B09F4FA
:102CF00045C06D3B09F445C06E3B09F445C06A3BD5
:102D000009F445C080E090E044C082EE90E041C00C
:102D100089EE90E03EC08AEE90E03BC085EB90E00B
:102D200038C086EB90E035C083EB90E032C084EB96
:102D300090E02FC087EB90E02CC08CEC90E029C095
:102D40008DEC90E026C083E891E023C08AE891E012
:102D500020C082E991E01DC084E991E01AC081E2BF
:102D600092E017C083E292E014C084E292E011C0C6
:102D700085E292E00EC086E292E00BC087E292E02C
:102D800008C08FE690E005C080E790E002C08AE2CC
:102D900092E00C9410150895882349F1682F8CEF68
:102DA000860F813A38F48091090190910A010E94BE
:102DB0002E1E0CC080E2860F883050F4677081E0D0
:102DC00001C0880F6A95EAF70E94631C0C94AB1C43
:102DD0008BE5860F833020F480E090E00C94FA14A9
:102DE000685A673120F480E090E00C941015089543
:102DF000CF93C82F0E940916C93349F42FEF87EEED
:102E000093E0215080409040E1F700C000008C2FFB
:102E1000CF910C94CC16882321F00E945D1C0C9459
:102E2000AB1C0895882321F00E94631C0C94AB1CFA
:102E30000895CF92DF92EF92FF920F931F93CF935B
:102E4000DF937C01D62FC72EC72FCF70FC011581D1
:102E500012951F70D280D1100E947D1C0E94531CBD
:102E6000882371F0DD2061F080E28D0F883040F022
:102E700082E00E94E51C0E94531C01E0082701C06B
:102E800000E09C2D92959F70943028F48C2D807FCB
:102E9000923068F03BC09C3009F488C09F3009F044
:102EA0008CC04C2F6D2FC7010E94910F86C08823C4
:102EB00011F0C295C07FDD2099F0CC2309F459C0F0
:102EC00080E28D0F883010F0D11104C08C2F0E9449
:102ED0005D1C03C08C2F0E94701C0E94AB1C49C05B
:102EE0008D2F0E94CC16CC2309F467C080E28D0F91
:102EF000883010F0D11104C08C2F0E94631C03C0D5
:102F00008C2F0E94761C0E94AB1C57C0803211F09F
:102F1000C295C07FDD2319F0D130C1F01FC0DD2084
:102F200071F0112341F0113031F40E94901C8C2B70
:102F30000E94981C42C00E94901C8C2B1FC0112321
:102F400011F01130D1F10E94A11C2CC0DD2019F02C
:102F5000163098F512C0153080F524C0DD2089F0B8
:102F6000112359F0F701858180FF03C08F7085839D
:102F700004C08D2F0E94091620C08C2F0E940B17B1
:102F80001CC0112379F0D93349F4FFEF27EE83E019
:102F9000F15020408040E1F700C000008D2F0E94DA
:102FA000CC160BC08C2F0E94121707C04C2F6D2F10
:102FB000C7010E948E0F0E94AA1B002389F00E9465
:102FC0004F1C80FD0DC0F7011282C701DF91CF9128
:102FD0001F910F91FF90EF90DF90CF900C94F91715
:102FE000DF91CF911F910F91FF90EF90DF90CF90E5
:102FF0000895CF93DF93EC01988189812B813C81E7
:10300000232B31F08F3F31F481E09F3F19F403C04F
:1030100081E001C080E080FD0EC0CE010E942B0F38
:10302000882349F0688179818A810E944B1CBC0108
:10303000CE010E941917DF91CF9108950E947D1C47
:103040000E948D1C0C94AB1C8091090190910A0187
:103050000E94301E0C941E180E946D1C0C942418A3
:10306000E92FE295EF704E2F50E0FA013297EE30E3
:10307000F105B0F4E659FF4F0C94A025803F91F084
:1030800018F4883E68F40EC0843F51F40BC0883EAB
:1030900048F0813F29F406C093FB882780F9089502
:1030A00080E0089581E008950E94401C0E9430183D
:1030B0000895CF93DF9300D000D01F92CDB7DEB735
:1030C0000F900F900F900F900F90DF91CF91089578
:1030D000CF93DF9300D000D000D0CDB7DEB72696D7
:1030E0000FB6F894DEBF0FBECDBFDF91CF9108952C
:1030F0001F93CF93DF93C091980216E080919902BD
:10310000C81799F0D0E01C9FF0011D9FF00D11240D
:10311000E656FD4F408151816281738184819581A2
:103120000E9468182196C770E9CFDF91CF911F9157
:1031300008954091CA025091CB026091CC027091E7
:10314000CD028091CE029091CF020C946818CF935B
:103150008091CF0282958F7009F05FC08091CC0280
:10316000882309F45AC080919802B0919902709115
:10317000CA02A091CB024091CD025091CE0291E0C3
:103180007F3F09F090E0692FC6E08B1709F445C036
:103190004115510521F0AF3F21F020E003C021E0AF
:1031A00001C0262F90E020FD35C0C89FF001C99FC7
:1031B000F00D1124E656FD4F21812A132BC02081EA
:1031C000271328C02281211125C02381348124178F
:1031D000350710F421503109241B350B283C3105EB
:1031E000C8F42091CF022F7020612093CF0226E0F7
:1031F000289FF001299FF00D1124E156FD4F808199
:103200008F70806180838AEC92E00E94F917CF91E1
:103210000C94781801968770B8CFCF910895AF922B
:10322000BF92CF92DF92EF92FF920F931F93CF93B3
:10323000DF93CDB7DEB761970FB6F894DEBF0FBE50
:10324000CDBF8C0185E0F801DE011D9601900D9245
:103250008A95E1F7D8014C9111965C9111971296DD
:10326000EC903091CA026091CB028091CD02909196
:10327000CE02009731F06F3F31F421E03F3F19F467
:1032800003C021E001C020E0B22FB170BB2E20FDB1
:1032900060C1F801C380D480A090CC02AA2009F4B8
:1032A000EEC02091CF02C816D90628F0D601A81B7F
:1032B000B90BCD0104C0809590958C0D9D1DFF2408
:1032C000F394883C910580F0F12C207F09F09CC09C
:1032D0007C2DD98AC88A6E2D89890E9459188AEC5A
:1032E00092E00E94F9172DC1822F807F09F054C00F
:1032F000561314C0431312C0FE2CE1100FC02F70E0
:1033000020612093CF020E9499188AEC92E00E94DB
:10331000F9178091CF02F80185835CC1CD2831F087
:103320005F3F31F481E04F3F19F403C081E001C0F9
:1033300080E080FD03C081E08E2502C080E090E047
:10334000F82FF170FF2E80FF1CC080919802209111
:10335000990236E0821709F41AC190E0389FF00113
:10336000399FF00D1124E656FD4F6181561306C0BA
:103370006081461303C06281E61203C00196877024
:10338000E9CFFE2CEE2009F425C18091CF028160A7
:103390008093CF02F12C1EC1561309C0431307C0FE
:1033A000E11005C08091CF02F8018583A4C04D874C
:1033B0005E878D859E850E945418882379F1EE20C2
:1033C00069F12091CF02822F82958F7090E0029751
:1033D00074F08091CA029091CB0298878F831986EE
:1033E000DB86CA862C87CE0107960E94F91786E0F5
:1033F000F801AAECB2E001900D928A95E1F70E94E3
:10340000A7180E9499180DC0561771F04D875E8756
:103410008D859E850E94541881111AC0C8010E9492
:10342000F917FF24F394D6C04313F0CFE110EECF89
:103430008091CF02F8018583C8010E94F91786E0C8
:10344000EAECF2E0DF011D928A95E9F7FA2CC2C09E
:10345000EE2021F32091CF02822F82958F7090E091
:1034600002972CF28091CA029091CB029A838983B1
:103470001B82DD82CC822E83CE010196B6CFC81688
:10348000D90628F0F601E81BF90BCF0104C080959E
:1034900090958C0D9D1D883C910548F0F12C7C2D5C
:1034A000D98AC88A6E2D89890E9459184AC0FE2C73
:1034B000EE2009F4B3CF561333C0431331C020912B
:1034C000CF0220FD24C0822F82958F70482F50E0BC
:1034D00041155105E1F0D80115962C9315974F3001
:1034E000510549F08F5F982F9295907F822F8F70B2
:1034F000892B15968C93C8010E94F91786E0F80174
:10350000AAECB2E001900D928A95E1F73DC086E009
:10351000F801AAECB2E001900D928A95E1F75AC049
:103520004D875E878D859E850E94541881115FCFDF
:103530008091CF0281608093CF02C8010E94F91769
:1035400049C0EAECF2E086E0DF011D928A95E9F7D6
:103550001BC0EE2009F462CF4D875E878D859E8566
:103560000E945418F82E882309F458CF86E0F801F9
:10357000AAECB2E001900D928A95E1F78AEC92E014
:103580000E9403160E94A7180E94991823C04D8715
:103590005E878D859E850E94401C292F22952F7065
:1035A000223028F49F7039F0811105C00BC02430FF
:1035B00028F49F7049F4805E883020F0C8010E9492
:1035C000F917BF2CFB2C06C0D80115969C91907F53
:1035D00091F7F8CF8F2D61960FB6F894DEBF0FBE2E
:1035E000CDBFDF91CF911F910F91FF90EF90DF90B2
:1035F000CF90BF90AF9008951F93CF93DF93CDB737
:10360000DEB72C970FB6F894DEBF0FBECDBF4F8349
:10361000588769877A878B879C87CE0107960E9497
:103620000F198823D1F09F8188852A853B85232B1C
:1036300031F08F3F31F481E09F3F19F403C081E006
:1036400001C080E080FD47C04F81588569857A853B
:103650008B859C850E9468183EC086E0FE013796E7
:10366000DE01119601900D928A95E1F7FF81E885C0
:103670006A857B856115710531F0EF3F31F481E09A
:10368000FF3F19F403C081E001C080E080FD23C04A
:103690002091990230E0C9010196877099274091E5
:1036A000980250E084179507F1F1F983EA837D834E
:1036B0006C8396E0929FD001939FB00D1124A65683
:1036C000BD4FFE01319601900D929A95E1F78093DE
:1036D00099020E94781816E08091980290919902C0
:1036E000891771F1189FC001112486569D4F0E94C1
:1036F0000F19882329F1E09198021E9FF0011124EF
:10370000E656FD4F408151816281738184819581AC
:103710000E9468188091980290E00196877099271E
:1037200080939802D9CF0E942C181092990210927F
:103730009802EAECF2E086E0DF011D928A95E9F753
:103740002C960FB6F894DEBF0FBECDBFDF91CF91A0
:103750001F910895EF92FF920F931F93CF93DF93E2
:103760008C01892B09F46CC0F12CEE24E394E80160
:103770002196F8018491843740F4843008F051C0D8
:10378000813081F0823019F15BC0853709F444C083
:10379000A8F19CE7980F903708F052C08F770E94ED
:1037A000CC1641C00E5F1F4FFE01849190E2980F2E
:1037B000983050F48770FE2D01C0FF0F8A95EAF70C
:1037C0008F2F0E94801C14C00E9409162DC00E5F0E
:1037D0001F4FFE01849190E2980F983060F487703B
:1037E000FE2D01C0FF0F8A95EAF78F2F0E94861CDD
:1037F0000E94AB1C19C00E94CC1616C00E5F1F4F52
:10380000FE01C491CC2381F08FE99FE00197F1F78D
:1038100000C00000C150F6CF0E5F1F4FFE01F490B4
:1038200003C00E9409168E018F2D882309F49FCFB3
:10383000EFE9FFE03197F1F700C000008150F5CFCC
:10384000DF91CF911F910F91FF90EF900895089510
:103850000C94271C0E94281C6093D0027093D10204
:103860008093D2029093D3020C941E186091D002E0
:103870007091D1028091D2029091D3020C94021DDA
:10388000CF93DF93EC010E94361CBE010E94AD0F66
:10389000DF91CF910895CB010E94401C0895809143
:1038A000D402877008959091D402977081E009F452
:1038B00080E008958091E00208959091E002892BC4
:1038C0008093E002089580959091E002892380938F
:1038D000E00208958093E00208951092E0020895B6
:1038E0009091DF02892B8093DF020895809590915B
:1038F000DF0289238093DF0208951092DF0208958A
:103900009091DE02892B8093DE020895809590913C
:10391000DE0289238093DE0208951092DE0208956C
:103920008091D502089508950C94931C0C94941CD6
:103930009091D502981721F08093D5020C94961C93
:1039400008958091D502882329F01092D50280E055
:103950000C94961C0895E0910901F0910A01809160
:10396000E0028083E0910901F0910A019081809149
:10397000DF02892B8083E0910901F0910A01908197
:103980008091DE02892B80838091D502882381F08B
:10399000E0910901F0910A019081892B8083809147
:1039A000090190910A010E94F91D81110E94A11C38
:1039B0008091090190910A010C94EF140C94931CCE
:1039C0001092D40280E00C94DE1C2091D4028095E9
:1039D00082238093D402982F977049F430E0082E08
:1039E000000C990B2817390711F00C94E01C08956E
:1039F00090E0882329F02FEF280F82239F5FF9CFD3
:103A0000892F0895CF92DF92EF92FF926C01EE24FE
:103A1000FF24C114D104E104F10421F0C701B6016F
:103A200020E101C020E0C72ED82EE92EFF24C114CA
:103A3000D104E104F10419F0285FC701B6016B015C
:103A40007C0154E0F694E794D794C7945A95D1F743
:103A5000C114D104E104F10419F02C5FC701B601CF
:103A60006B017C0142E0F694E794D794C7944A95A1
:103A7000D1F7C114D104E104F10419F02E5FC7019C
:103A8000B601DC01CB01B695A79597958795892B53
:103A90008A2B8B2B09F02F5F822FFF90EF90DF9006
:103AA000CF90089580E090E00E94B72521E08C3E01
:103AB0009E4F09F020E0822F089582E090E00C9460
:103AC000AF2583E090E00C94AF25CF9384E090E0A5
:103AD0000E94AF25C82F81E290E00E94AF252C2FD5
:103AE00030E0A901582BCA01CF910895CF93C92F77
:103AF000682F84E090E00E94BD256C2F81E290E069
:103B0000CF910C94BD25AB01BC018FE090E00C94EB
:103B1000CF25AB01BC0183E190E00C94CF2560E0A0
:103B200070E0CB010C94891D60E070E0CB010E9435
:103B3000831D0C948F1D6CEE7EEF80E090E00E9460
:103B4000DB2560E082E090E00E94BD2560E083E03C
:103B500090E00E94BD251092D0021092D1021092E6
:103B6000D2021092D30260E084E090E00E94BD2572
:103B700060E081E290E00E94BD2560E085E090E099
:103B80000E94BD2560E086E090E00E94BD256FEFB9
:103B900087E090E00E94BD2540E050E0BA0188E057
:103BA00090E00E94CF2560E08DE090E00E94BD256E
:103BB00040E050E0BA0188E190E00E94CF2560E04B
:103BC00087E190E00E94BD2540E050E0BA018CE121
:103BD00090E00E94CF2560E080E290E00E94BD2549
:103BE0000C94941D0C949B1D682F8EE090E00C9417
:103BF000BD25FC01329697E080E0915029F021919B
:103C00002223D9F38F5FF9CF08959C01FC013296EE
:103C10009FEF80E04191461789F09F3F19F44111D1
:103C200001C0982F8F5F8630A9F79F3F39F0F901C7
:103C3000E90FF11D97FDFA956283089508959C019F
:103C40002A5F3F4FFC014281461301C01282019658
:103C500082179307B9F708950C94051E0C941F1E44
:103C6000029626E0FC0111922A95E9F7089508953D
:103C70000C94371E0C94371E0E943A1E0E94781234
:103C80000E94381E80E00E94381221E0892B09F43E
:103C900020E0822F08950C94371E0C944B1E0E9436
:103CA0004D1E8091A603843049F11092E20220E477
:103CB00088E190E00FB6F894A895809360000FBE5D
:103CC0002093600080E00E940C0F0E944D1E83B77D
:103CD000817F846083BF83B7816083BF7894889538
:103CE00083B78E7F83BF0FB6F894A895809160004C
:103CF000886180936000109260000FBE08950C945C
:103D0000371E0E942C180E94E3140E940C0F0C9482
:103D10007F1E1F920F920FB60F9211248F939F93C5
:103D2000AF93BF938091E202811113C080919C03F5
:103D300090919D03A0919E03B0919F034196A11D78
:103D4000B11D80939C0390939D03A0939E03B09319
:103D50009F03BF91AF919F918F910F900FBE0F90D6
:103D60001F90189582E084BD93E095BD9AEF97BDB2
:103D700080936E0008952FB7F89480919C039091E2
:103D80009D03A0919E03B0919F032FBF0895CF92F2
:103D9000DF92EF92FF920F931F932FB7F894409109
:103DA0009C0350919D0360919E0370919F032FBFD0
:103DB0006A017B01EE24FF248C0120E030E0C01674
:103DC000D106E206F30610F4415051099A01281B6E
:103DD000390BC9011F910F91FF90EF90DF90CF90A9
:103DE000089578941F920F920FB60F9211248F931B
:103DF0009F93AF93BF9380919C0390919D03A0915B
:103E00009E03B0919F030196A11DB11D80939C0359
:103E100090939D03A0939E03B0939F03BF91AF9196
:103E20009F918F910F900FBE0F901F90189587E76D
:103E300097E790930108809300089AE088E10FB615
:103E4000F894A895809360000FBE90936000FFCF18
:103E50000E94521D811102C00E94F21D0E945D1D30
:103E60008093E1020E94651D9093A1038093A003BB
:103E70000E94611D682F70E080E090E00C942A1C85
:103E80008091EB02089508950895CF93DF93EC019C
:103E90000E94E520823011F0843039F581E0809372
:103EA000E9008FEF9091E800815095FD06C095EDF7
:103EB0009A95F1F700008111F5CF8091E80085FF18
:103EC00014C040E050E068E070E0CE010E940221A2
:103ED0008091E8008E778093E80088E0FE01A3EEF1
:103EE000B2E001900D928A95E1F7DF91CF910895AC
:103EF00008958091A503811109C00E9493220E9418
:103F0000F0228091E20084608093E2000895109294
:103F1000A5030895089508950C94811E42E061EC74
:103F200081E00C940C228091A803833009F460C0D6
:103F300030F4813071F0823009F499C008958A30EC
:103F400009F485C08B3009F46BC0893009F0A7C033
:103F500020C08091A703813A09F0A1C08091E800B8
:103F6000877F8093E8008091AB039091AC03892B0D
:103F700021F468E083EE92E003C060E080E090E02E
:103F800070E00E944D218091E8008B778093E800DB
:103F900008958091A703813209F081C08091AB031D
:103FA0009091AC03892B09F07AC08091E800877F5B
:103FB0008093E8008091E80082FD05C08091A6030F
:103FC0008111F8CF6CC02091F3008091F20090E055
:103FD000922B029729F48091F1008B7F813021F49C
:103FE0008091F1008093EB028091E8008B7753C0C1
:103FF0008091A703813A09F052C08091AB03909160
:10400000AC03892B09F04BC08091E800877F809337
:10401000E8008091E80080FFFCCF8091150136C058
:104020008091A7038132D9F58091AB039091AC03C5
:10403000892BA9F58091E800877F8093E8000E9492
:1040400041228091A903809315010C942C18809132
:10405000A703813221F58091E800877F8093E800F3
:104060000E9441228091AA038093EC0208958091DE
:10407000A703813AA1F48091E800877F8093E8004C
:104080008091E80080FFFCCF8091EC028093F100EA
:104090008091E8008E778093E8000C944122089587
:1040A00084B7877F84BF0FB6F894A895809160008D
:1040B000886180936000109260000FBE90E080E8FD
:1040C0000FB6F89480936100909361000FBE0E9438
:1040D00036150E9493220E94F0228091E2008460B3
:1040E0008093E20078940E9485250E943E158BE023
:1040F00091E00E94DE148091A603853069F40E944D
:104100004F1E8091A4038823B1F30E943C1E882394
:1041100091F30E94EC20EFCF0E944615ECCF0C9457
:104120009120292F332723303105C1F058F4213055
:10413000310579F022303105C1F582E290E023ECBF
:1041400033E137C02132310511F12232310531F12D
:104150002CC082E190E025EE33E12BC0992781301D
:10416000910561F040F08230910559F00397E9F430
:10417000E5E9F3E108C0EFEBF3E105C0E7EAF3E1BD
:1041800002C0EBE9F3E1849190E09F0112C0672B3C
:1041900061F489E090E025ED33E10BC0672B29F451
:1041A00080E490E027EF33E104C080E090E020E07D
:1041B00030E0FA013183208308958091A603843092
:1041C00011F081E0089582E008958091ED0281115F
:1041D00002C00C94DD20089580E189BD82E189BD93
:1041E00009B400FEFDCF8091D8008F7D8093D80068
:1041F0008091E00082608093E0008091E00081FD8A
:10420000FCCF0895CF92DF92EF92FF920F931F930E
:10421000CF93DF93EC018B017A010E946022811120
:1042200033C0E114F10439F0F70180819181081B5A
:10423000190BC80FD91FC12CD12C0115110519F16B
:104240008091E80085FD16C08091E8008E7780930C
:10425000E800E114F10449F0F70180819181C80E72
:10426000D91ED182C08285E00FC00E9460228823BF
:1042700021F30AC089918093F10001501109FFEFE9
:10428000CF1ADF0ADACF80E0DF91CF911F910F9133
:10429000FF90EF90DF90CF9008952091AD03309183
:1042A000AE032617370748F06115710539F42091E0
:1042B000E8002E772093E80001C0B901FC0120E05E
:1042C0006115710579F18091A6038823F1F185309C
:1042D000F1F18091E80083FD3CC08091E80082FD0F
:1042E0002EC08091E80080FFEBCF2091F3008091F9
:1042F000F20090E0922B6115710551F08830910524
:1043000038F421912093F100615071090196F3CFA7
:1043100021E0089709F020E08091E8008E778093F3
:10432000E800CECF2111CFCF0AC08091A603882309
:1043300061F0853061F08091E80083FD0AC08091D2
:10434000E80082FFF2CF80E0089582E0089583E0E4
:10435000089581E008952091AD033091AE032617B2
:10436000370748F06115710539F42091E8002E7780
:104370002093E80001C0B901FC0120E0611571053E
:1043800091F18091A603882309F440C0853009F497
:104390003FC08091E80083FD3DC08091E80082FD30
:1043A0002FC08091E80080FFE9CF2091F300809139
:1043B000F20090E0922B6115710559F0883091055B
:1043C00040F424912093F1003196615071090196D7
:1043D000F2CF21E0089709F020E08091E8008E7785
:1043E0008093E800CBCF2111CCCF0AC08091A603E7
:1043F000882361F0853061F08091E80083FD0AC078
:104400008091E80082FFF2CF80E0089582E0089575
:1044100083E0089581E00895982F973068F5909390
:10442000E900981739F07091EC002091ED0050915F
:10443000F00003C0242F762F50E021FD02C09F5FC3
:10444000ECCF3091EB003E7F3093EB003091ED00EC
:104450003D7F3093ED003091EB0031603093EB0005
:104460007093EC002093ED005093F0002091EE004B
:1044700027FDE5CF80E008958F708093E90081E00B
:1044800008958091A70387FF11C08091E80082FD05
:1044900005C08091A6038111F8CF11C08091E8007A
:1044A0008B770BC08091A603882349F08091E800A8
:1044B00080FFF8CF8091E8008E778093E800089520
:1044C0002091E4003091E50095E64091EC00842FC6
:1044D000817040FF23C08091E80080FD1DC0809165
:1044E000A603882399F0853099F08091EB0085FD33
:1044F00011C04091E4005091E5002417350729F3DD
:10450000915011F09A01E1CF84E0089582E008957E
:1045100083E0089581E0089580E008954091E800E7
:1045200042FFDDCF08950E9401230E940923E0EE9F
:10453000F0E0808181608083E8EDF0E080818F771A
:10454000808319BCA7EDB0E08C918E7F8C93808125
:104550008F7E80831092A50308950F931F93CF93AE
:10456000DF930E9401230E940923C8EDD0E08881D7
:104570008F77888388818068888388818F7D88830E
:1045800019BC1092A6031092A2031092A4031092D9
:10459000A30300EE10E0F80180818B7F8083888187
:1045A0008160888342E060E080E00E940C22E1EEBE
:1045B000F0E080818E7F8083E2EEF0E08081816098
:1045C0008083808188608083F80180818E7F8083F2
:1045D000888180618883DF91CF911F910F91089529
:1045E000E8EDF0E080818F7E8083E7EDF0E0808170
:1045F0008160808384E082BF81E08093A5030C9476
:10460000AD22E8EDF0E080818E7F80831092E200A1
:1046100008951092DA001092E10008951F920F920F
:104620000FB60F9211242F933F934F935F936F9385
:104630007F938F939F93AF93BF93EF93FF9380915B
:10464000E10082FF0BC08091E20082FF07C08091F1
:10465000E1008B7F8093E1000E9484258091DA0045
:1046600080FF1FC08091D80080FF1BC08091DA00BE
:104670008E7F8093DA008091D90080FF0DC080E1A9
:1046800089BD82E189BD09B400FEFDCF81E0809340
:10469000A6030E94791F05C019BC1092A6030E94B0
:1046A000871F8091E10080FF19C08091E20080FFA8
:1046B00015C08091E2008E7F8093E2008091E2003D
:1046C00080618093E2008091D80080628093D8005E
:1046D00019BC85E08093A6030E948B1F8091E100A6
:1046E00084FF30C08091E20084FF2CC080E189BD4E
:1046F00082E189BD09B400FEFDCF8091D8008F7D95
:104700008093D8008091E1008F7E8093E1008091BA
:10471000E2008F7E8093E2008091E20081608093CE
:10472000E2008091A203882311F084E007C0809109
:10473000E30087FD02C081E001C083E08093A6030F
:104740000E948C1F8091E10083FF29C08091E200CC
:1047500083FF25C08091E100877F8093E10082E0A4
:104760008093A6031092A2038091E1008E7F809334
:10477000E1008091E2008E7F8093E2008091E20070
:1047800080618093E20042E060E080E00E940C22C1
:104790008091F00088608093F0000E948A1FFF9152
:1047A000EF91BF91AF919F918F917F916F915F91A9
:1047B0004F913F912F910F900FBE0F901F90189522
:1047C0001F920F920FB60F9211242F933F934F9386
:1047D0005F936F937F938F939F93AF93BF93CF9389
:1047E000DF93EF93FF93C091E900CF708091EC00CD
:1047F000D82FD17080FDD0E81092E9008091F000B0
:10480000877F8093F00078940E9424241092E9001E
:104810008091F00088608093F000CD2BCF70C09322
:10482000E900FF91EF91DF91CF91BF91AF919F91FF
:104830008F917F916F915F914F913F912F910F9049
:104840000FBE0F901F9018951F93CF93DF93CDB796
:10485000DEB7AA970FB6F894DEBF0FBECDBFE7EA6A
:10486000F3E08091F100819323E0EF3AF207C9F77A
:104870000E94931F8091E80083FF2EC18091A703BF
:104880009091A803492F50E04A30510508F024C107
:10489000FA01E858FF4F0C94A025803821F08238A7
:1048A00009F01AC108C08091A3039091A403992331
:1048B00089F082600FC08091AB038F70873008F061
:1048C0000BC18093E9008091EB0085FB882780F97C
:1048D0001092E9009091E800977F9093E800809310
:1048E000F1001092F100D1C0282F2D7F09F0F4C003
:1048F000882319F0823061F0EFC08091A9038130E4
:1049000009F0EAC0933009F080E08093A4032EC040
:104910008091A90381112AC08091AB038F702FEF82
:10492000280F263008F0D8C08093E9002091EB00D2
:1049300020FF1CC0933021F48091EB00806214C0F2
:104940009091EB0090619093EB0021E030E0A901A1
:1049500002C0440F551F8A95E2F74093EA00109277
:10496000EA008091EB0088608093EB001092E900F0
:104970008091E800877F8093E8000E944122ACC0CC
:104980008111AAC01091A9031F778091E30080785C
:10499000812B8093E3008091E800877F8093E8007B
:1049A0000E9441228091E80080FFFCCF8091E300CB
:1049B00080688093E300111102C082E001C083E0AF
:1049C0008093A60389C08058823008F085C080910A
:1049D000A9039091AA038C3D53E0950779F583E0F4
:1049E0008A838AE289834FB7F894DE01139620E028
:1049F0003EE051E2E32FF0E050935700E49120FFB6
:104A000003C0E295EF703F5FEF708E2F90E0EA30C9
:104A100010F0C79601C0C0968D939D932F5F2431EF
:104A200049F74FBF8091E800877F8093E8006AE2F2
:104A300070E0CE0101960E944D2116C06091AB033B
:104A40007091AC03AE014F5F5F4F0E948F20BC019D
:104A5000892B09F441C09091E800977F9093E8007A
:104A600089819A810E94AB218091E8008B778093A5
:104A7000E80032C0803881F58091E800877F80931C
:104A8000E8008091A2038093F1008091E8008E7786
:104A900072CF811121C08091A9039091AA03992717
:104AA0000297D4F48091E800877F8093E80080919A
:104AB000A9038093A2030E9441228091A203811145
:104AC00006C08091E30087FD02C081E001C084E060
:104AD0008093A6030E948E1F8091E80083FF0AC086
:104AE0008091E800877F8093E8008091EB008062EE
:104AF0008093EB00AA960FB6F894DEBF0FBECDBF31
:104B0000DF91CF911F9108950895CF938091A603CF
:104B10008823A1F0C091E900CF709091EC00892F1B
:104B2000817090FD80E8C82B1092E9008091E80028
:104B300083FD0E942424CF70C093E900CF91089593
:104B4000EE0FFF1F0590F491E02D0994FB01DC01AD
:104B500002C005900D9241505040D8F70895F99940
:104B6000FECF92BD81BDF89A992780B50895A8E13E
:104B7000B0E042E050E00C94E325262FF999FECFF7
:104B800092BD81BDF89A019700B4021639F01FBAA0
:104B900020BD0FB6F894FA9AF99A0FBE08950396BD
:104BA000272F0E94BE250E94BD25252F0E94BE25CD
:104BB000242F0C94BE250196272F0E94BE250C940D
:104BC000BD25DC01CB01FC01F999FECF06C0F2BD89
:104BD000E1BDF89A319600B40D9241505040B8F7BB
:064BE0000895F894FFCFD8
:104BE600010C000F005D007D01D602401F451F43EA
:104BF6001F781F441F019900000004990400000457
:104C06009910000004990800000466000000106670
:104C16000400001066100000106608000010FF0374
:104C2600000008FF07000008FF13000008FF0B0044
:104C3600000880001320000C08001704000801007B
:104C46000440001202001610001112000D21001D72
:104C56000C001505001B28001930000B41012F9090
:104C6600001084003409000903001AC00033220032
:104C76000E06000742003782013014001C11001492
:104C860050001824003688002A18000544002D60BC
:104C9600000F48000A0A0006810138F000280F00BC
:104CA6002B0110E00210E10410E20810E31010508E
:104CB60020105140105280104F00124B00114E81AF
:104CC600103A41103BC1103C21103DA1103E61102D
:104CD6003FE11040111041911042511043D1104450
:104CE60031104512104A82104D22104942104C4094
:104CF600042602041F10042420042501041E0404B3
:104D06002008042180042711043581053821043147
:104D160014044A3004232404360A04008404341894
:104D2600042E82053088042A41052F4204374404A4
:104D36002D0C0422C0043350040012044DF0042844
:104D46000F042B0001E100022CC69766943536F657
:044D5600F7313200FF
:00000001FF
